{
  "contractName": "VotingSystem",
  "abi": [
    {
      "inputs": [
        {
          "internalType": "string[]",
          "name": "candidateNames",
          "type": "string[]"
        },
        {
          "internalType": "string[]",
          "name": "candidateAffiliations",
          "type": "string[]"
        }
      ],
      "stateMutability": "nonpayable",
      "type": "constructor"
    },
    {
      "anonymous": false,
      "inputs": [
        {
          "indexed": false,
          "internalType": "string",
          "name": "message",
          "type": "string"
        },
        {
          "indexed": true,
          "internalType": "address",
          "name": "voterAddress",
          "type": "address"
        }
      ],
      "name": "DebugLog",
      "type": "event"
    },
    {
      "anonymous": false,
      "inputs": [
        {
          "indexed": true,
          "internalType": "address",
          "name": "voter",
          "type": "address"
        },
        {
          "indexed": true,
          "internalType": "uint256",
          "name": "candidateId",
          "type": "uint256"
        }
      ],
      "name": "Voted",
      "type": "event"
    },
    {
      "inputs": [
        {
          "internalType": "uint256",
          "name": "",
          "type": "uint256"
        }
      ],
      "name": "candidates",
      "outputs": [
        {
          "internalType": "uint256",
          "name": "id",
          "type": "uint256"
        },
        {
          "internalType": "string",
          "name": "name",
          "type": "string"
        },
        {
          "internalType": "string",
          "name": "affiliation",
          "type": "string"
        },
        {
          "internalType": "uint256",
          "name": "voteCount",
          "type": "uint256"
        }
      ],
      "stateMutability": "view",
      "type": "function"
    },
    {
      "inputs": [
        {
          "internalType": "address",
          "name": "",
          "type": "address"
        }
      ],
      "name": "hasVoted",
      "outputs": [
        {
          "internalType": "bool",
          "name": "",
          "type": "bool"
        }
      ],
      "stateMutability": "view",
      "type": "function"
    },
    {
      "inputs": [
        {
          "internalType": "address",
          "name": "",
          "type": "address"
        }
      ],
      "name": "isRegistered",
      "outputs": [
        {
          "internalType": "bool",
          "name": "",
          "type": "bool"
        }
      ],
      "stateMutability": "view",
      "type": "function"
    },
    {
      "inputs": [
        {
          "internalType": "uint256",
          "name": "",
          "type": "uint256"
        }
      ],
      "name": "voters",
      "outputs": [
        {
          "internalType": "address",
          "name": "",
          "type": "address"
        }
      ],
      "stateMutability": "view",
      "type": "function"
    },
    {
      "inputs": [
        {
          "internalType": "address",
          "name": "voterAddress",
          "type": "address"
        }
      ],
      "name": "registerVoter",
      "outputs": [],
      "stateMutability": "nonpayable",
      "type": "function"
    },
    {
      "inputs": [
        {
          "internalType": "uint256",
          "name": "candidateId",
          "type": "uint256"
        }
      ],
      "name": "vote",
      "outputs": [],
      "stateMutability": "nonpayable",
      "type": "function"
    }
  ],
  "bytecode": "0x60806040523480156200001157600080fd5b506040516200157e3803806200157e833981810160405281019062000037919062000406565b80518251146200007e576040517f08c379a0000000000000000000000000000000000000000000000000000000008152600401620000759062000512565b60405180910390fd5b60005b82518110156200016e5760036040518060800160405280838152602001858481518110620000b457620000b362000534565b5b60200260200101518152602001848481518110620000d757620000d662000534565b5b6020026020010151815260200160008152509080600181540180825580915050600190039060005260206000209060040201600090919091909150600082015181600001556020820151816001019081620001339190620007ae565b5060408201518160020190816200014b9190620007ae565b5060608201518160030155505080806200016590620008c4565b91505062000081565b50505062000911565b6000604051905090565b600080fd5b600080fd5b600080fd5b6000601f19601f8301169050919050565b7f4e487b7100000000000000000000000000000000000000000000000000000000600052604160045260246000fd5b620001db8262000190565b810181811067ffffffffffffffff82111715620001fd57620001fc620001a1565b5b80604052505050565b60006200021262000177565b9050620002208282620001d0565b919050565b600067ffffffffffffffff821115620002435762000242620001a1565b5b602082029050602081019050919050565b600080fd5b600080fd5b600067ffffffffffffffff8211156200027c576200027b620001a1565b5b620002878262000190565b9050602081019050919050565b60005b83811015620002b457808201518184015260208101905062000297565b60008484015250505050565b6000620002d7620002d1846200025e565b62000206565b905082815260208101848484011115620002f657620002f562000259565b5b6200030384828562000294565b509392505050565b600082601f8301126200032357620003226200018b565b5b815162000335848260208601620002c0565b91505092915050565b6000620003556200034f8462000225565b62000206565b905080838252602082019050602084028301858111156200037b576200037a62000254565b5b835b81811015620003c957805167ffffffffffffffff811115620003a457620003a36200018b565b5b808601620003b389826200030b565b855260208501945050506020810190506200037d565b5050509392505050565b600082601f830112620003eb57620003ea6200018b565b5b8151620003fd8482602086016200033e565b91505092915050565b6000806040838503121562000420576200041f62000181565b5b600083015167ffffffffffffffff81111562000441576200044062000186565b5b6200044f85828601620003d3565b925050602083015167ffffffffffffffff81111562000473576200047262000186565b5b6200048185828601620003d3565b9150509250929050565b600082825260208201905092915050565b7f4d69736d61746368206265747765656e206e616d657320616e6420616666696c60008201527f696174696f6e732e000000000000000000000000000000000000000000000000602082015250565b6000620004fa6028836200048b565b915062000507826200049c565b604082019050919050565b600060208201905081810360008301526200052d81620004eb565b9050919050565b7f4e487b7100000000000000000000000000000000000000000000000000000000600052603260045260246000fd5b600081519050919050565b7f4e487b7100000000000000000000000000000000000000000000000000000000600052602260045260246000fd5b60006002820490506001821680620005b657607f821691505b602082108103620005cc57620005cb6200056e565b5b50919050565b60008190508160005260206000209050919050565b60006020601f8301049050919050565b600082821b905092915050565b600060088302620006367fffffffffffffffffffffffffffffffffffffffffffffffffffffffffffffffff82620005f7565b620006428683620005f7565b95508019841693508086168417925050509392505050565b6000819050919050565b6000819050919050565b60006200068f6200068962000683846200065a565b62000664565b6200065a565b9050919050565b6000819050919050565b620006ab836200066e565b620006c3620006ba8262000696565b84845462000604565b825550505050565b600090565b620006da620006cb565b620006e7818484620006a0565b505050565b5b818110156200070f5762000703600082620006d0565b600181019050620006ed565b5050565b601f8211156200075e576200072881620005d2565b6200073384620005e7565b8101602085101562000743578190505b6200075b6200075285620005e7565b830182620006ec565b50505b505050565b600082821c905092915050565b6000620007836000198460080262000763565b1980831691505092915050565b60006200079e838362000770565b9150826002028217905092915050565b620007b98262000563565b67ffffffffffffffff811115620007d557620007d4620001a1565b5b620007e182546200059d565b620007ee82828562000713565b600060209050601f83116001811462000826576000841562000811578287015190505b6200081d858262000790565b8655506200088d565b601f1984166200083686620005d2565b60005b82811015620008605784890151825560018201915060208501945060208101905062000839565b868310156200088057848901516200087c601f89168262000770565b8355505b6001600288020188555050505b505050505050565b7f4e487b7100000000000000000000000000000000000000000000000000000000600052601160045260246000fd5b6000620008d1826200065a565b91507fffffffffffffffffffffffffffffffffffffffffffffffffffffffffffffffff820362000906576200090562000895565b5b600182019050919050565b610c5d80620009216000396000f3fe608060405234801561001057600080fd5b50600436106100625760003560e01c80630121b93f1461006757806309eef43e146100835780633477ee2e146100b357806338db6dd3146100e6578063c3c5a54714610102578063da58c7d914610132575b600080fd5b610081600480360381019061007c91906106fb565b610162565b005b61009d60048036038101906100989190610786565b61039c565b6040516100aa91906107ce565b60405180910390f35b6100cd60048036038101906100c891906106fb565b6103bc565b6040516100dd9493929190610888565b60405180910390f35b61010060048036038101906100fb9190610786565b61050c565b005b61011c60048036038101906101179190610786565b610661565b60405161012991906107ce565b60405180910390f35b61014c600480360381019061014791906106fb565b610681565b60405161015991906108ea565b60405180910390f35b600160003373ffffffffffffffffffffffffffffffffffffffff1673ffffffffffffffffffffffffffffffffffffffff16815260200190815260200160002060009054906101000a900460ff166101ee576040517f08c379a00000000000000000000000000000000000000000000000000000000081526004016101e590610951565b60405180910390fd5b600260003373ffffffffffffffffffffffffffffffffffffffff1673ffffffffffffffffffffffffffffffffffffffff16815260200190815260200160002060009054906101000a900460ff161561027b576040517f08c379a0000000000000000000000000000000000000000000000000000000008152600401610272906109bd565b60405180910390fd5b60038054905081106102c2576040517f08c379a00000000000000000000000000000000000000000000000000000000081526004016102b990610a29565b60405180910390fd5b6001600260003373ffffffffffffffffffffffffffffffffffffffff1673ffffffffffffffffffffffffffffffffffffffff16815260200190815260200160002060006101000a81548160ff0219169083151502179055506003818154811061032e5761032d610a49565b5b9060005260206000209060040201600301600081548092919061035090610aa7565b9190505550803373ffffffffffffffffffffffffffffffffffffffff167f4d99b957a2bc29a30ebd96a7be8e68fe50a3c701db28a91436490b7d53870ca460405160405180910390a350565b60026020528060005260406000206000915054906101000a900460ff1681565b600381815481106103cc57600080fd5b90600052602060002090600402016000915090508060000154908060010180546103f590610b1e565b80601f016020809104026020016040519081016040528092919081815260200182805461042190610b1e565b801561046e5780601f106104435761010080835404028352916020019161046e565b820191906000526020600020905b81548152906001019060200180831161045157829003601f168201915b50505050509080600201805461048390610b1e565b80601f01602080910402602001604051908101604052809291908181526020018280546104af90610b1e565b80156104fc5780601f106104d1576101008083540402835291602001916104fc565b820191906000526020600020905b8154815290600101906020018083116104df57829003601f168201915b5050505050908060030154905084565b8073ffffffffffffffffffffffffffffffffffffffff167f42c5c5392f1cc52a311cb73e5bdb7a6ecca0ce9b627fe4d65630e5f170d3a25160405161055090610b9b565b60405180910390a26000819080600181540180825580915050600190039060005260206000200160009091909190916101000a81548173ffffffffffffffffffffffffffffffffffffffff021916908373ffffffffffffffffffffffffffffffffffffffff16021790555060018060008373ffffffffffffffffffffffffffffffffffffffff1673ffffffffffffffffffffffffffffffffffffffff16815260200190815260200160002060006101000a81548160ff0219169083151502179055508073ffffffffffffffffffffffffffffffffffffffff167f42c5c5392f1cc52a311cb73e5bdb7a6ecca0ce9b627fe4d65630e5f170d3a25160405161065690610c07565b60405180910390a250565b60016020528060005260406000206000915054906101000a900460ff1681565b6000818154811061069157600080fd5b906000526020600020016000915054906101000a900473ffffffffffffffffffffffffffffffffffffffff1681565b600080fd5b6000819050919050565b6106d8816106c5565b81146106e357600080fd5b50565b6000813590506106f5816106cf565b92915050565b600060208284031215610711576107106106c0565b5b600061071f848285016106e6565b91505092915050565b600073ffffffffffffffffffffffffffffffffffffffff82169050919050565b600061075382610728565b9050919050565b61076381610748565b811461076e57600080fd5b50565b6000813590506107808161075a565b92915050565b60006020828403121561079c5761079b6106c0565b5b60006107aa84828501610771565b91505092915050565b60008115159050919050565b6107c8816107b3565b82525050565b60006020820190506107e360008301846107bf565b92915050565b6107f2816106c5565b82525050565b600081519050919050565b600082825260208201905092915050565b60005b83811015610832578082015181840152602081019050610817565b60008484015250505050565b6000601f19601f8301169050919050565b600061085a826107f8565b6108648185610803565b9350610874818560208601610814565b61087d8161083e565b840191505092915050565b600060808201905061089d60008301876107e9565b81810360208301526108af818661084f565b905081810360408301526108c3818561084f565b90506108d260608301846107e9565b95945050505050565b6108e481610748565b82525050565b60006020820190506108ff60008301846108db565b92915050565b7f596f7520617265206e6f74207265676973746572656420746f20766f74652e00600082015250565b600061093b601f83610803565b915061094682610905565b602082019050919050565b6000602082019050818103600083015261096a8161092e565b9050919050565b7f596f75206861766520616c726561647920766f7465642e000000000000000000600082015250565b60006109a7601783610803565b91506109b282610971565b602082019050919050565b600060208201905081810360008301526109d68161099a565b9050919050565b7f496e76616c69642063616e6469646174652049442e0000000000000000000000600082015250565b6000610a13601583610803565b9150610a1e826109dd565b602082019050919050565b60006020820190508181036000830152610a4281610a06565b9050919050565b7f4e487b7100000000000000000000000000000000000000000000000000000000600052603260045260246000fd5b7f4e487b7100000000000000000000000000000000000000000000000000000000600052601160045260246000fd5b6000610ab2826106c5565b91507fffffffffffffffffffffffffffffffffffffffffffffffffffffffffffffffff8203610ae457610ae3610a78565b5b600182019050919050565b7f4e487b7100000000000000000000000000000000000000000000000000000000600052602260045260246000fd5b60006002820490506001821680610b3657607f821691505b602082108103610b4957610b48610aef565b5b50919050565b7f5265676973746572696e6720766f746572000000000000000000000000000000600082015250565b6000610b85601183610803565b9150610b9082610b4f565b602082019050919050565b60006020820190508181036000830152610bb481610b78565b9050919050565b7f566f746572207265676973746572656400000000000000000000000000000000600082015250565b6000610bf1601083610803565b9150610bfc82610bbb565b602082019050919050565b60006020820190508181036000830152610c2081610be4565b905091905056fea2646970667358221220e2477e767a78a4dc91b3e26b93608da47336ba4fb72f06456586dbfe1503a0eb64736f6c63430008110033",
  "immutableReferences": {},
  "source": "// SPDX-License-Identifier: MIT\npragma solidity ^0.8.0;\n\nimport {ECDSA} from \"@openzeppelin/contracts/utils/cryptography/ECDSA.sol\";\n\ncontract VotingSystem {\n    address[] public voters;\n    mapping(address => bool) public isRegistered;\n    mapping(address => bool) public hasVoted;\n\n    event Voted(address indexed voter, uint indexed candidateId);\n    event DebugLog(string message, address indexed voterAddress);\n\n    struct Candidate {\n        uint id;\n        string name;\n        string affiliation;\n        uint voteCount;\n    }\n\n    Candidate[] public candidates;\n\n    constructor(string[] memory candidateNames, string[] memory candidateAffiliations) {\n        require(candidateNames.length == candidateAffiliations.length, \"Mismatch between names and affiliations.\");\n        for (uint i = 0; i < candidateNames.length; i++) {\n            candidates.push(Candidate(i, candidateNames[i], candidateAffiliations[i], 0));\n        }\n    }\n\n    function registerVoter(address voterAddress) public {\n        // Only the contract owner or an authorized entity should be able to register voters\n        // TODO: add access control mechanism\n        emit DebugLog(\"Registering voter\", voterAddress);\n        voters.push(voterAddress);\n        isRegistered[voterAddress] = true;\n        emit DebugLog(\"Voter registered\", voterAddress);\n    }\n\n    function vote(uint candidateId) public {\n        require(isRegistered[msg.sender], \"You are not registered to vote.\");\n        require(!hasVoted[msg.sender], \"You have already voted.\");\n        require(candidateId < candidates.length, \"Invalid candidate ID.\");\n\n        hasVoted[msg.sender] = true;\n\n        candidates[candidateId].voteCount++;\n\n        emit Voted(msg.sender, candidateId);\n    }\n}",
  "sourcePath": "/Users/steventohme/Desktop/decentral-democracy/contracts/VotingSystem.sol",
  "compiler": {
    "name": "solc",
    "version": "0.8.17+commit.8df45f5f.Emscripten.clang"
  },
  "schemaVersion": "3.4.16",
  "updatedAt": "2023-09-16T18:21:33.864Z",
  "devdoc": {
    "kind": "dev",
    "methods": {},
    "version": 1
  },
  "userdoc": {
    "kind": "user",
    "methods": {},
    "version": 1
  }
}