{
  "contractName": "VotingSystem",
  "abi": [
    {
      "inputs": [
        {
          "internalType": "string[]",
          "name": "candidateNames",
          "type": "string[]"
        },
        {
          "internalType": "string[]",
          "name": "candidateAffiliations",
          "type": "string[]"
        }
      ],
      "stateMutability": "nonpayable",
      "type": "constructor"
    },
    {
      "anonymous": false,
      "inputs": [
        {
          "indexed": false,
          "internalType": "string",
          "name": "message",
          "type": "string"
        },
        {
          "indexed": true,
          "internalType": "address",
          "name": "voterAddress",
          "type": "address"
        }
      ],
      "name": "DebugLog",
      "type": "event"
    },
    {
      "anonymous": false,
      "inputs": [
        {
          "indexed": true,
          "internalType": "address",
          "name": "voter",
          "type": "address"
        },
        {
          "indexed": true,
          "internalType": "uint256",
          "name": "candidateId",
          "type": "uint256"
        }
      ],
      "name": "Voted",
      "type": "event"
    },
    {
      "inputs": [
        {
          "internalType": "uint256",
          "name": "",
          "type": "uint256"
        }
      ],
      "name": "candidates",
      "outputs": [
        {
          "internalType": "uint256",
          "name": "id",
          "type": "uint256"
        },
        {
          "internalType": "string",
          "name": "name",
          "type": "string"
        },
        {
          "internalType": "string",
          "name": "affiliation",
          "type": "string"
        },
        {
          "internalType": "uint256",
          "name": "voteCount",
          "type": "uint256"
        }
      ],
      "stateMutability": "view",
      "type": "function"
    },
    {
      "inputs": [
        {
          "internalType": "address",
          "name": "",
          "type": "address"
        }
      ],
      "name": "encryptedVotes",
      "outputs": [
        {
          "internalType": "bytes",
          "name": "",
          "type": "bytes"
        }
      ],
      "stateMutability": "view",
      "type": "function"
    },
    {
      "inputs": [
        {
          "internalType": "address",
          "name": "",
          "type": "address"
        }
      ],
      "name": "hasVoted",
      "outputs": [
        {
          "internalType": "bool",
          "name": "",
          "type": "bool"
        }
      ],
      "stateMutability": "view",
      "type": "function"
    },
    {
      "inputs": [
        {
          "internalType": "address",
          "name": "",
          "type": "address"
        }
      ],
      "name": "isRegistered",
      "outputs": [
        {
          "internalType": "bool",
          "name": "",
          "type": "bool"
        }
      ],
      "stateMutability": "view",
      "type": "function"
    },
    {
      "inputs": [
        {
          "internalType": "uint256",
          "name": "",
          "type": "uint256"
        }
      ],
      "name": "voters",
      "outputs": [
        {
          "internalType": "address",
          "name": "",
          "type": "address"
        }
      ],
      "stateMutability": "view",
      "type": "function"
    },
    {
      "inputs": [
        {
          "internalType": "address",
          "name": "voterAddress",
          "type": "address"
        }
      ],
      "name": "registerVoter",
      "outputs": [],
      "stateMutability": "nonpayable",
      "type": "function"
    },
    {
      "inputs": [
        {
          "internalType": "address",
          "name": "caller",
          "type": "address"
        }
      ],
      "name": "isAuthorized",
      "outputs": [
        {
          "internalType": "bool",
          "name": "",
          "type": "bool"
        }
      ],
      "stateMutability": "pure",
      "type": "function"
    },
    {
      "inputs": [
        {
          "internalType": "bytes",
          "name": "encryptedVote",
          "type": "bytes"
        }
      ],
      "name": "vote",
      "outputs": [],
      "stateMutability": "nonpayable",
      "type": "function"
    },
    {
      "inputs": [
        {
          "internalType": "bytes",
          "name": "privateKey",
          "type": "bytes"
        }
      ],
      "name": "countVotes",
      "outputs": [
        {
          "internalType": "bytes",
          "name": "",
          "type": "bytes"
        }
      ],
      "stateMutability": "view",
      "type": "function"
    }
  ],
  "bytecode": "0x60806040523480156200001157600080fd5b5060405162001f4138038062001f41833981810160405281019062000037919062000406565b80518251146200007e576040517f08c379a0000000000000000000000000000000000000000000000000000000008152600401620000759062000512565b60405180910390fd5b60005b82518110156200016e5760046040518060800160405280838152602001858481518110620000b457620000b362000534565b5b60200260200101518152602001848481518110620000d757620000d662000534565b5b6020026020010151815260200160008152509080600181540180825580915050600190039060005260206000209060040201600090919091909150600082015181600001556020820151816001019081620001339190620007ae565b5060408201518160020190816200014b9190620007ae565b5060608201518160030155505080806200016590620008c4565b91505062000081565b50505062000911565b6000604051905090565b600080fd5b600080fd5b600080fd5b6000601f19601f8301169050919050565b7f4e487b7100000000000000000000000000000000000000000000000000000000600052604160045260246000fd5b620001db8262000190565b810181811067ffffffffffffffff82111715620001fd57620001fc620001a1565b5b80604052505050565b60006200021262000177565b9050620002208282620001d0565b919050565b600067ffffffffffffffff821115620002435762000242620001a1565b5b602082029050602081019050919050565b600080fd5b600080fd5b600067ffffffffffffffff8211156200027c576200027b620001a1565b5b620002878262000190565b9050602081019050919050565b60005b83811015620002b457808201518184015260208101905062000297565b60008484015250505050565b6000620002d7620002d1846200025e565b62000206565b905082815260208101848484011115620002f657620002f562000259565b5b6200030384828562000294565b509392505050565b600082601f8301126200032357620003226200018b565b5b815162000335848260208601620002c0565b91505092915050565b6000620003556200034f8462000225565b62000206565b905080838252602082019050602084028301858111156200037b576200037a62000254565b5b835b81811015620003c957805167ffffffffffffffff811115620003a457620003a36200018b565b5b808601620003b389826200030b565b855260208501945050506020810190506200037d565b5050509392505050565b600082601f830112620003eb57620003ea6200018b565b5b8151620003fd8482602086016200033e565b91505092915050565b6000806040838503121562000420576200041f62000181565b5b600083015167ffffffffffffffff81111562000441576200044062000186565b5b6200044f85828601620003d3565b925050602083015167ffffffffffffffff81111562000473576200047262000186565b5b6200048185828601620003d3565b9150509250929050565b600082825260208201905092915050565b7f4d69736d61746368206265747765656e206e616d657320616e6420616666696c60008201527f696174696f6e732e000000000000000000000000000000000000000000000000602082015250565b6000620004fa6028836200048b565b915062000507826200049c565b604082019050919050565b600060208201905081810360008301526200052d81620004eb565b9050919050565b7f4e487b7100000000000000000000000000000000000000000000000000000000600052603260045260246000fd5b600081519050919050565b7f4e487b7100000000000000000000000000000000000000000000000000000000600052602260045260246000fd5b60006002820490506001821680620005b657607f821691505b602082108103620005cc57620005cb6200056e565b5b50919050565b60008190508160005260206000209050919050565b60006020601f8301049050919050565b600082821b905092915050565b600060088302620006367fffffffffffffffffffffffffffffffffffffffffffffffffffffffffffffffff82620005f7565b620006428683620005f7565b95508019841693508086168417925050509392505050565b6000819050919050565b6000819050919050565b60006200068f6200068962000683846200065a565b62000664565b6200065a565b9050919050565b6000819050919050565b620006ab836200066e565b620006c3620006ba8262000696565b84845462000604565b825550505050565b600090565b620006da620006cb565b620006e7818484620006a0565b505050565b5b818110156200070f5762000703600082620006d0565b600181019050620006ed565b5050565b601f8211156200075e576200072881620005d2565b6200073384620005e7565b8101602085101562000743578190505b6200075b6200075285620005e7565b830182620006ec565b50505b505050565b600082821c905092915050565b6000620007836000198460080262000763565b1980831691505092915050565b60006200079e838362000770565b9150826002028217905092915050565b620007b98262000563565b67ffffffffffffffff811115620007d557620007d4620001a1565b5b620007e182546200059d565b620007ee82828562000713565b600060209050601f83116001811462000826576000841562000811578287015190505b6200081d858262000790565b8655506200088d565b601f1984166200083686620005d2565b60005b82811015620008605784890151825560018201915060208501945060208101905062000839565b868310156200088057848901516200087c601f89168262000770565b8355505b6001600288020188555050505b505050505050565b7f4e487b7100000000000000000000000000000000000000000000000000000000600052601160045260246000fd5b6000620008d1826200065a565b91507fffffffffffffffffffffffffffffffffffffffffffffffffffffffffffffffff820362000906576200090562000895565b5b600182019050919050565b61162080620009216000396000f3fe608060405234801561001057600080fd5b50600436106100935760003560e01c8063c3c5a54711610066578063c3c5a54714610147578063d671890814610177578063da58c7d9146101a7578063e9dc0614146101d7578063fe9fbb80146101f357610093565b806309eef43e146100985780633477ee2e146100c857806338db6dd3146100fb578063ad3c969414610117575b600080fd5b6100b260048036038101906100ad9190610c13565b610223565b6040516100bf9190610c5b565b60405180910390f35b6100e260048036038101906100dd9190610cac565b610243565b6040516100f29493929190610d78565b60405180910390f35b61011560048036038101906101109190610c13565b610393565b005b610131600480360381019061012c9190610f00565b6104e8565b60405161013e9190610f9e565b60405180910390f35b610161600480360381019061015c9190610c13565b610673565b60405161016e9190610c5b565b60405180910390f35b610191600480360381019061018c9190610c13565b610693565b60405161019e9190610f9e565b60405180910390f35b6101c160048036038101906101bc9190610cac565b610733565b6040516101ce9190610fcf565b60405180910390f35b6101f160048036038101906101ec9190610f00565b610772565b005b61020d60048036038101906102089190610c13565b610a6c565b60405161021a9190610c5b565b60405180910390f35b60026020528060005260406000206000915054906101000a900460ff1681565b6004818154811061025357600080fd5b906000526020600020906004020160009150905080600001549080600101805461027c90611019565b80601f01602080910402602001604051908101604052809291908181526020018280546102a890611019565b80156102f55780601f106102ca576101008083540402835291602001916102f5565b820191906000526020600020905b8154815290600101906020018083116102d857829003601f168201915b50505050509080600201805461030a90611019565b80601f016020809104026020016040519081016040528092919081815260200182805461033690611019565b80156103835780601f1061035857610100808354040283529160200191610383565b820191906000526020600020905b81548152906001019060200180831161036657829003601f168201915b5050505050908060030154905084565b8073ffffffffffffffffffffffffffffffffffffffff167f42c5c5392f1cc52a311cb73e5bdb7a6ecca0ce9b627fe4d65630e5f170d3a2516040516103d790611096565b60405180910390a26000819080600181540180825580915050600190039060005260206000200160009091909190916101000a81548173ffffffffffffffffffffffffffffffffffffffff021916908373ffffffffffffffffffffffffffffffffffffffff16021790555060018060008373ffffffffffffffffffffffffffffffffffffffff1673ffffffffffffffffffffffffffffffffffffffff16815260200190815260200160002060006101000a81548160ff0219169083151502179055508073ffffffffffffffffffffffffffffffffffffffff167f42c5c5392f1cc52a311cb73e5bdb7a6ecca0ce9b627fe4d65630e5f170d3a2516040516104dd90611102565b60405180910390a250565b60606104f333610a6c565b610532576040517f08c379a00000000000000000000000000000000000000000000000000000000081526004016105299061116e565b60405180910390fd5b6000825167ffffffffffffffff81111561054f5761054e610dd5565b5b6040519080825280601f01601f1916602001820160405280156105815781602001600182028036833780820191505090505b50905060006040518060400160405280600681526020017f7365637265740000000000000000000000000000000000000000000000000000815250905060005b845181101561066857818251826105d891906111bd565b815181106105e9576105e86111ee565b5b602001015160f81c60f81b858281518110610607576106066111ee565b5b602001015160f81c60f81b18838281518110610626576106256111ee565b5b60200101907effffffffffffffffffffffffffffffffffffffffffffffffffffffffffffff1916908160001a90535080806106609061124c565b9150506105c1565b508192505050919050565b60016020528060005260406000206000915054906101000a900460ff1681565b600360205280600052604060002060009150905080546106b290611019565b80601f01602080910402602001604051908101604052809291908181526020018280546106de90611019565b801561072b5780601f106107005761010080835404028352916020019161072b565b820191906000526020600020905b81548152906001019060200180831161070e57829003601f168201915b505050505081565b6000818154811061074357600080fd5b906000526020600020016000915054906101000a900473ffffffffffffffffffffffffffffffffffffffff1681565b600160003373ffffffffffffffffffffffffffffffffffffffff1673ffffffffffffffffffffffffffffffffffffffff16815260200190815260200160002060009054906101000a900460ff166107fe576040517f08c379a00000000000000000000000000000000000000000000000000000000081526004016107f5906112e0565b60405180910390fd5b600260003373ffffffffffffffffffffffffffffffffffffffff1673ffffffffffffffffffffffffffffffffffffffff16815260200190815260200160002060009054906101000a900460ff161561088b576040517f08c379a00000000000000000000000000000000000000000000000000000000081526004016108829061134c565b60405180910390fd5b60006040518060400160405280600681526020017f736563726574000000000000000000000000000000000000000000000000000081525090506000825167ffffffffffffffff8111156108e2576108e1610dd5565b5b6040519080825280601f01601f1916602001820160405280156109145781602001600182028036833780820191505090505b50905060005b83518110156109c1578283518261093191906111bd565b81518110610942576109416111ee565b5b602001015160f81c60f81b8482815181106109605761095f6111ee565b5b602001015160f81c60f81b1882828151811061097f5761097e6111ee565b5b60200101907effffffffffffffffffffffffffffffffffffffffffffffffffffffffffffff1916908160001a90535080806109b99061124c565b91505061091a565b5080600360003373ffffffffffffffffffffffffffffffffffffffff1673ffffffffffffffffffffffffffffffffffffffff1681526020019081526020016000209081610a0e9190611518565b506001600260003373ffffffffffffffffffffffffffffffffffffffff1673ffffffffffffffffffffffffffffffffffffffff16815260200190815260200160002060006101000a81548160ff021916908315150217905550505050565b600080600167ffffffffffffffff811115610a8a57610a89610dd5565b5b604051908082528060200260200182016040528015610ab85781602001602082028036833780820191505090505b50905073eefcdad9eadcd1e1cb9ea466bbc635796940d07381600081518110610ae457610ae36111ee565b5b602002602001019073ffffffffffffffffffffffffffffffffffffffff16908173ffffffffffffffffffffffffffffffffffffffff168152505060005b8151811015610b95578373ffffffffffffffffffffffffffffffffffffffff16828281518110610b5457610b536111ee565b5b602002602001015173ffffffffffffffffffffffffffffffffffffffff1603610b8257600192505050610b9c565b8080610b8d9061124c565b915050610b21565b5060009150505b919050565b6000604051905090565b600080fd5b600080fd5b600073ffffffffffffffffffffffffffffffffffffffff82169050919050565b6000610be082610bb5565b9050919050565b610bf081610bd5565b8114610bfb57600080fd5b50565b600081359050610c0d81610be7565b92915050565b600060208284031215610c2957610c28610bab565b5b6000610c3784828501610bfe565b91505092915050565b60008115159050919050565b610c5581610c40565b82525050565b6000602082019050610c706000830184610c4c565b92915050565b6000819050919050565b610c8981610c76565b8114610c9457600080fd5b50565b600081359050610ca681610c80565b92915050565b600060208284031215610cc257610cc1610bab565b5b6000610cd084828501610c97565b91505092915050565b610ce281610c76565b82525050565b600081519050919050565b600082825260208201905092915050565b60005b83811015610d22578082015181840152602081019050610d07565b60008484015250505050565b6000601f19601f8301169050919050565b6000610d4a82610ce8565b610d548185610cf3565b9350610d64818560208601610d04565b610d6d81610d2e565b840191505092915050565b6000608082019050610d8d6000830187610cd9565b8181036020830152610d9f8186610d3f565b90508181036040830152610db38185610d3f565b9050610dc26060830184610cd9565b95945050505050565b600080fd5b600080fd5b7f4e487b7100000000000000000000000000000000000000000000000000000000600052604160045260246000fd5b610e0d82610d2e565b810181811067ffffffffffffffff82111715610e2c57610e2b610dd5565b5b80604052505050565b6000610e3f610ba1565b9050610e4b8282610e04565b919050565b600067ffffffffffffffff821115610e6b57610e6a610dd5565b5b610e7482610d2e565b9050602081019050919050565b82818337600083830152505050565b6000610ea3610e9e84610e50565b610e35565b905082815260208101848484011115610ebf57610ebe610dd0565b5b610eca848285610e81565b509392505050565b600082601f830112610ee757610ee6610dcb565b5b8135610ef7848260208601610e90565b91505092915050565b600060208284031215610f1657610f15610bab565b5b600082013567ffffffffffffffff811115610f3457610f33610bb0565b5b610f4084828501610ed2565b91505092915050565b600081519050919050565b600082825260208201905092915050565b6000610f7082610f49565b610f7a8185610f54565b9350610f8a818560208601610d04565b610f9381610d2e565b840191505092915050565b60006020820190508181036000830152610fb88184610f65565b905092915050565b610fc981610bd5565b82525050565b6000602082019050610fe46000830184610fc0565b92915050565b7f4e487b7100000000000000000000000000000000000000000000000000000000600052602260045260246000fd5b6000600282049050600182168061103157607f821691505b60208210810361104457611043610fea565b5b50919050565b7f5265676973746572696e6720766f746572000000000000000000000000000000600082015250565b6000611080601183610cf3565b915061108b8261104a565b602082019050919050565b600060208201905081810360008301526110af81611073565b9050919050565b7f566f746572207265676973746572656400000000000000000000000000000000600082015250565b60006110ec601083610cf3565b91506110f7826110b6565b602082019050919050565b6000602082019050818103600083015261111b816110df565b9050919050565b7f556e617574686f72697a656420757365722e0000000000000000000000000000600082015250565b6000611158601283610cf3565b915061116382611122565b602082019050919050565b600060208201905081810360008301526111878161114b565b9050919050565b7f4e487b7100000000000000000000000000000000000000000000000000000000600052601260045260246000fd5b60006111c882610c76565b91506111d383610c76565b9250826111e3576111e261118e565b5b828206905092915050565b7f4e487b7100000000000000000000000000000000000000000000000000000000600052603260045260246000fd5b7f4e487b7100000000000000000000000000000000000000000000000000000000600052601160045260246000fd5b600061125782610c76565b91507fffffffffffffffffffffffffffffffffffffffffffffffffffffffffffffffff82036112895761128861121d565b5b600182019050919050565b7f566f746572206973206e6f7420726567697374657265642e0000000000000000600082015250565b60006112ca601883610cf3565b91506112d582611294565b602082019050919050565b600060208201905081810360008301526112f9816112bd565b9050919050565b7f566f7465722068617320616c726561647920766f7465642e0000000000000000600082015250565b6000611336601883610cf3565b915061134182611300565b602082019050919050565b6000602082019050818103600083015261136581611329565b9050919050565b60008190508160005260206000209050919050565b60006020601f8301049050919050565b600082821b905092915050565b6000600883026113ce7fffffffffffffffffffffffffffffffffffffffffffffffffffffffffffffffff82611391565b6113d88683611391565b95508019841693508086168417925050509392505050565b6000819050919050565b600061141561141061140b84610c76565b6113f0565b610c76565b9050919050565b6000819050919050565b61142f836113fa565b61144361143b8261141c565b84845461139e565b825550505050565b600090565b61145861144b565b611463818484611426565b505050565b5b818110156114875761147c600082611450565b600181019050611469565b5050565b601f8211156114cc5761149d8161136c565b6114a684611381565b810160208510156114b5578190505b6114c96114c185611381565b830182611468565b50505b505050565b600082821c905092915050565b60006114ef600019846008026114d1565b1980831691505092915050565b600061150883836114de565b9150826002028217905092915050565b61152182610f49565b67ffffffffffffffff81111561153a57611539610dd5565b5b6115448254611019565b61154f82828561148b565b600060209050601f8311600181146115825760008415611570578287015190505b61157a85826114fc565b8655506115e2565b601f1984166115908661136c565b60005b828110156115b857848901518255600182019150602085019450602081019050611593565b868310156115d557848901516115d1601f8916826114de565b8355505b6001600288020188555050505b50505050505056fea264697066735822122008d58f374bb819e26160569b1c384389a6dd7e077c1c7ab66d5b041e79026f7e64736f6c63430008110033",
  "immutableReferences": {},
  "source": "// SPDX-License-Identifier: MIT\npragma solidity ^0.8.0;\n\n\ncontract VotingSystem {\n    address[] public voters;\n    mapping(address => bool) public isRegistered;\n    mapping(address => bool) public hasVoted;\n    mapping(address => bytes) public encryptedVotes;\n    \n    event Voted(address indexed voter, uint indexed candidateId);\n    event DebugLog(string message, address indexed voterAddress);\n    \n\n    struct Candidate {\n        uint id;\n        string name;\n        string affiliation;\n        uint voteCount;\n    }\n\n    Candidate[] public candidates;\n\n    constructor(string[] memory candidateNames, string[] memory candidateAffiliations) {\n        require(candidateNames.length == candidateAffiliations.length, \"Mismatch between names and affiliations.\");\n        for (uint i = 0; i < candidateNames.length; i++) {\n            candidates.push(Candidate(i, candidateNames[i], candidateAffiliations[i], 0));\n        }\n    }\n\n    function registerVoter(address voterAddress) public {\n        // Only the contract owner or an authorized entity should be able to register voters\n        // TODO: add access control mechanism\n        emit DebugLog(\"Registering voter\", voterAddress);\n        voters.push(voterAddress);\n        isRegistered[voterAddress] = true;\n        emit DebugLog(\"Voter registered\", voterAddress);\n    }\n\n    function isAuthorized(address caller) public pure returns (bool) {\n        // for demonstration we assume we have a list of authorized personnel\n        address[] memory authorizedAddresses = new address[](1);\n        authorizedAddresses[0] = 0xeEfcDAD9Eadcd1E1cb9Ea466bbC635796940D073;\n        for (uint i = 0; i < authorizedAddresses.length; i++) {\n            if (authorizedAddresses[i] == caller) {\n                return true;\n            }\n        }\n        return false;\n    }\n\n    // both of these function are encrypted with XOR for simplicity and demonstration purposes\n    // production would have more robust encryption\n    function vote(bytes memory encryptedVote) public {\n        require(isRegistered[msg.sender], \"Voter is not registered.\");\n        require(!hasVoted[msg.sender], \"Voter has already voted.\");\n\n        bytes memory key = bytes(\"secret\");\n        bytes memory encrypted = new bytes(encryptedVote.length);\n        for (uint i = 0; i < encryptedVote.length; i++) {\n            encrypted[i] = encryptedVote[i] ^ key[i % key.length];\n        }\n        encryptedVotes[msg.sender] = encrypted;\n        hasVoted[msg.sender] = true;\n    }\n\n    function countVotes(bytes memory privateKey) public view returns (bytes memory) {\n        require(isAuthorized(msg.sender), \"Unauthorized user.\");\n        bytes memory decrypted = new bytes(privateKey.length);\n        bytes memory key = bytes(\"secret\");\n\n        for (uint i = 0; i < privateKey.length; i++) {\n            decrypted[i] = privateKey[i] ^ key[i % key.length];\n        }\n\n        return decrypted;\n    }\n\n}",
  "sourcePath": "/Users/steventohme/Desktop/decentral-democracy/contracts/VotingSystem.sol",
  "compiler": {
    "name": "solc",
    "version": "0.8.17+commit.8df45f5f.Emscripten.clang"
  },
  "schemaVersion": "3.4.16",
  "updatedAt": "2023-09-16T19:23:47.121Z",
  "devdoc": {
    "kind": "dev",
    "methods": {},
    "version": 1
  },
  "userdoc": {
    "kind": "user",
    "methods": {},
    "version": 1
  }
}