{
  "contractName": "VotingSystem",
  "abi": [
    {
      "inputs": [
        {
          "internalType": "string[]",
          "name": "candidateNames",
          "type": "string[]"
        },
        {
          "internalType": "string[]",
          "name": "candidateAffiliations",
          "type": "string[]"
        }
      ],
      "stateMutability": "nonpayable",
      "type": "constructor"
    },
    {
      "anonymous": false,
      "inputs": [
        {
          "indexed": true,
          "internalType": "uint256",
          "name": "candidateId",
          "type": "uint256"
        }
      ],
      "name": "DebugCandidateId",
      "type": "event"
    },
    {
      "anonymous": false,
      "inputs": [
        {
          "indexed": true,
          "internalType": "address",
          "name": "voter",
          "type": "address"
        },
        {
          "indexed": true,
          "internalType": "uint256",
          "name": "candidateId",
          "type": "uint256"
        }
      ],
      "name": "Voted",
      "type": "event"
    },
    {
      "anonymous": false,
      "inputs": [
        {
          "indexed": true,
          "internalType": "address",
          "name": "voterAddress",
          "type": "address"
        },
        {
          "indexed": false,
          "internalType": "string",
          "name": "name",
          "type": "string"
        },
        {
          "indexed": false,
          "internalType": "string",
          "name": "surname",
          "type": "string"
        },
        {
          "indexed": false,
          "internalType": "string",
          "name": "dob",
          "type": "string"
        }
      ],
      "name": "VoterRegistered",
      "type": "event"
    },
    {
      "inputs": [
        {
          "internalType": "uint256",
          "name": "",
          "type": "uint256"
        }
      ],
      "name": "candidates",
      "outputs": [
        {
          "internalType": "uint256",
          "name": "id",
          "type": "uint256"
        },
        {
          "internalType": "string",
          "name": "name",
          "type": "string"
        },
        {
          "internalType": "string",
          "name": "affiliation",
          "type": "string"
        },
        {
          "internalType": "uint256",
          "name": "voteCount",
          "type": "uint256"
        }
      ],
      "stateMutability": "view",
      "type": "function",
      "constant": true
    },
    {
      "inputs": [
        {
          "internalType": "address",
          "name": "",
          "type": "address"
        }
      ],
      "name": "hasVoted",
      "outputs": [
        {
          "internalType": "bool",
          "name": "",
          "type": "bool"
        }
      ],
      "stateMutability": "view",
      "type": "function",
      "constant": true
    },
    {
      "inputs": [
        {
          "internalType": "string",
          "name": "",
          "type": "string"
        },
        {
          "internalType": "string",
          "name": "",
          "type": "string"
        },
        {
          "internalType": "string",
          "name": "",
          "type": "string"
        }
      ],
      "name": "isRegistered",
      "outputs": [
        {
          "internalType": "bool",
          "name": "",
          "type": "bool"
        }
      ],
      "stateMutability": "view",
      "type": "function",
      "constant": true
    },
    {
      "inputs": [
        {
          "internalType": "address",
          "name": "",
          "type": "address"
        }
      ],
      "name": "isRegisteredAddress",
      "outputs": [
        {
          "internalType": "bool",
          "name": "",
          "type": "bool"
        }
      ],
      "stateMutability": "view",
      "type": "function",
      "constant": true
    },
    {
      "inputs": [
        {
          "internalType": "uint256",
          "name": "",
          "type": "uint256"
        }
      ],
      "name": "registeredAddresses",
      "outputs": [
        {
          "internalType": "address",
          "name": "",
          "type": "address"
        }
      ],
      "stateMutability": "view",
      "type": "function",
      "constant": true
    },
    {
      "inputs": [
        {
          "internalType": "string",
          "name": "name",
          "type": "string"
        },
        {
          "internalType": "string",
          "name": "surname",
          "type": "string"
        },
        {
          "internalType": "string",
          "name": "dob",
          "type": "string"
        }
      ],
      "name": "registerVoter",
      "outputs": [],
      "stateMutability": "nonpayable",
      "type": "function"
    },
    {
      "inputs": [],
      "name": "getRegisteredVotersCount",
      "outputs": [
        {
          "internalType": "uint256",
          "name": "",
          "type": "uint256"
        }
      ],
      "stateMutability": "view",
      "type": "function",
      "constant": true
    },
    {
      "inputs": [
        {
          "internalType": "address",
          "name": "caller",
          "type": "address"
        }
      ],
      "name": "isAuthorized",
      "outputs": [
        {
          "internalType": "bool",
          "name": "",
          "type": "bool"
        }
      ],
      "stateMutability": "pure",
      "type": "function",
      "constant": true
    },
    {
      "inputs": [
        {
          "internalType": "string",
          "name": "hexString",
          "type": "string"
        }
      ],
      "name": "convertToAddress",
      "outputs": [
        {
          "internalType": "address",
          "name": "",
          "type": "address"
        }
      ],
      "stateMutability": "pure",
      "type": "function",
      "constant": true
    },
    {
      "inputs": [
        {
          "internalType": "string",
          "name": "voterAddressString",
          "type": "string"
        },
        {
          "internalType": "uint256",
          "name": "candidateId",
          "type": "uint256"
        },
        {
          "internalType": "string",
          "name": "signature",
          "type": "string"
        }
      ],
      "name": "vote",
      "outputs": [],
      "stateMutability": "nonpayable",
      "type": "function"
    },
    {
      "inputs": [
        {
          "internalType": "uint256",
          "name": "candidateId",
          "type": "uint256"
        }
      ],
      "name": "countVotes",
      "outputs": [
        {
          "internalType": "uint256",
          "name": "",
          "type": "uint256"
        }
      ],
      "stateMutability": "view",
      "type": "function",
      "constant": true
    }
  ],
  "bytecode": "0x60806040523480156200001157600080fd5b5060405162002426380380620024268339818101604052810190620000379190620003bf565b60005b82518110156200012757600460405180608001604052808381526020018584815181106200006d576200006c62000444565b5b6020026020010151815260200184848151811062000090576200008f62000444565b5b6020026020010151815260200160008152509080600181540180825580915050600190039060005260206000209060040201600090919091909150600082015181600001556020820151816001019081620000ec9190620006be565b506040820151816002019081620001049190620006be565b5060608201518160030155505080806200011e90620007d4565b9150506200003a565b50505062000821565b6000604051905090565b600080fd5b600080fd5b600080fd5b6000601f19601f8301169050919050565b7f4e487b7100000000000000000000000000000000000000000000000000000000600052604160045260246000fd5b620001948262000149565b810181811067ffffffffffffffff82111715620001b657620001b56200015a565b5b80604052505050565b6000620001cb62000130565b9050620001d9828262000189565b919050565b600067ffffffffffffffff821115620001fc57620001fb6200015a565b5b602082029050602081019050919050565b600080fd5b600080fd5b600067ffffffffffffffff8211156200023557620002346200015a565b5b620002408262000149565b9050602081019050919050565b60005b838110156200026d57808201518184015260208101905062000250565b60008484015250505050565b6000620002906200028a8462000217565b620001bf565b905082815260208101848484011115620002af57620002ae62000212565b5b620002bc8482856200024d565b509392505050565b600082601f830112620002dc57620002db62000144565b5b8151620002ee84826020860162000279565b91505092915050565b60006200030e6200030884620001de565b620001bf565b905080838252602082019050602084028301858111156200033457620003336200020d565b5b835b818110156200038257805167ffffffffffffffff8111156200035d576200035c62000144565b5b8086016200036c8982620002c4565b8552602085019450505060208101905062000336565b5050509392505050565b600082601f830112620003a457620003a362000144565b5b8151620003b6848260208601620002f7565b91505092915050565b60008060408385031215620003d957620003d86200013a565b5b600083015167ffffffffffffffff811115620003fa57620003f96200013f565b5b62000408858286016200038c565b925050602083015167ffffffffffffffff8111156200042c576200042b6200013f565b5b6200043a858286016200038c565b9150509250929050565b7f4e487b7100000000000000000000000000000000000000000000000000000000600052603260045260246000fd5b600081519050919050565b7f4e487b7100000000000000000000000000000000000000000000000000000000600052602260045260246000fd5b60006002820490506001821680620004c657607f821691505b602082108103620004dc57620004db6200047e565b5b50919050565b60008190508160005260206000209050919050565b60006020601f8301049050919050565b600082821b905092915050565b600060088302620005467fffffffffffffffffffffffffffffffffffffffffffffffffffffffffffffffff8262000507565b62000552868362000507565b95508019841693508086168417925050509392505050565b6000819050919050565b6000819050919050565b60006200059f6200059962000593846200056a565b62000574565b6200056a565b9050919050565b6000819050919050565b620005bb836200057e565b620005d3620005ca82620005a6565b84845462000514565b825550505050565b600090565b620005ea620005db565b620005f7818484620005b0565b505050565b5b818110156200061f5762000613600082620005e0565b600181019050620005fd565b5050565b601f8211156200066e576200063881620004e2565b6200064384620004f7565b8101602085101562000653578190505b6200066b6200066285620004f7565b830182620005fc565b50505b505050565b600082821c905092915050565b6000620006936000198460080262000673565b1980831691505092915050565b6000620006ae838362000680565b9150826002028217905092915050565b620006c98262000473565b67ffffffffffffffff811115620006e557620006e46200015a565b5b620006f18254620004ad565b620006fe82828562000623565b600060209050601f83116001811462000736576000841562000721578287015190505b6200072d8582620006a0565b8655506200079d565b601f1984166200074686620004e2565b60005b82811015620007705784890151825560018201915060208501945060208101905062000749565b868310156200079057848901516200078c601f89168262000680565b8355505b6001600288020188555050505b505050505050565b7f4e487b7100000000000000000000000000000000000000000000000000000000600052601160045260246000fd5b6000620007e1826200056a565b91507fffffffffffffffffffffffffffffffffffffffffffffffffffffffffffffffff8203620008165762000815620007a5565b5b600182019050919050565b611bf580620008316000396000f3fe608060405234801561001057600080fd5b50600436106100a95760003560e01c80637e0873e3116100715780637e0873e31461018d578063a91081a1146101bd578063d47ec969146101db578063db0c7ca8146101f7578063ec65dc3414610227578063fe9fbb8014610257576100a9565b806307439509146100ae57806309eef43e146100ca5780631840f0ca146100fa5780633477ee2e1461012a5780636e9b85551461015d575b600080fd5b6100c860048036038101906100c39190610fce565b610287565b005b6100e460048036038101906100df91906110d3565b61050f565b6040516100f1919061111b565b60405180910390f35b610114600480360381019061010f919061116c565b61052f565b60405161012191906111a8565b60405180910390f35b610144600480360381019061013f919061116c565b6105ed565b6040516101549493929190611242565b60405180910390f35b6101776004803603810190610172919061116c565b61073d565b60405161018491906112a4565b60405180910390f35b6101a760048036038101906101a29190610fce565b61077c565b6040516101b4919061111b565b60405180910390f35b6101c56107fa565b6040516101d291906111a8565b60405180910390f35b6101f560048036038101906101f091906112bf565b610807565b005b610211600480360381019061020c91906110d3565b610aa9565b60405161021e919061111b565b60405180910390f35b610241600480360381019061023c919061134a565b610ac9565b60405161024e91906112a4565b60405180910390f35b610271600480360381019061026c91906110d3565b610c55565b60405161027e919061111b565b60405180910390f35b6000151560008460405161029b91906113cf565b9081526020016040518091039020836040516102b791906113cf565b9081526020016040518091039020826040516102d391906113cf565b908152602001604051809103902060009054906101000a900460ff16151514610331576040517f08c379a000000000000000000000000000000000000000000000000000000000815260040161032890611458565b60405180910390fd5b6000339050600160008560405161034891906113cf565b90815260200160405180910390208460405161036491906113cf565b90815260200160405180910390208360405161038091906113cf565b908152602001604051809103902060006101000a81548160ff02191690831515021790555060018060008373ffffffffffffffffffffffffffffffffffffffff1673ffffffffffffffffffffffffffffffffffffffff16815260200190815260200160002060006101000a81548160ff0219169083151502179055506003819080600181540180825580915050600190039060005260206000200160009091909190916101000a81548173ffffffffffffffffffffffffffffffffffffffff021916908373ffffffffffffffffffffffffffffffffffffffff1602179055506000600260008373ffffffffffffffffffffffffffffffffffffffff1673ffffffffffffffffffffffffffffffffffffffff16815260200190815260200160002060006101000a81548160ff0219169083151502179055508073ffffffffffffffffffffffffffffffffffffffff167ff905e12dedf8b52b886d4f6fa367677b7b02bd1dedeb4d3867a63e345ac7f8f085858560405161050193929190611478565b60405180910390a250505050565b60026020528060005260406000206000915054906101000a900460ff1681565b600061053a33610c55565b610579576040517f08c379a000000000000000000000000000000000000000000000000000000000815260040161057090611510565b60405180910390fd5b60048054905082106105c0576040517f08c379a00000000000000000000000000000000000000000000000000000000081526004016105b79061157c565b60405180910390fd5b600482815481106105d4576105d361159c565b5b9060005260206000209060040201600301549050919050565b600481815481106105fd57600080fd5b9060005260206000209060040201600091509050806000015490806001018054610626906115fa565b80601f0160208091040260200160405190810160405280929190818152602001828054610652906115fa565b801561069f5780601f106106745761010080835404028352916020019161069f565b820191906000526020600020905b81548152906001019060200180831161068257829003601f168201915b5050505050908060020180546106b4906115fa565b80601f01602080910402602001604051908101604052809291908181526020018280546106e0906115fa565b801561072d5780601f106107025761010080835404028352916020019161072d565b820191906000526020600020905b81548152906001019060200180831161071057829003601f168201915b5050505050908060030154905084565b6003818154811061074d57600080fd5b906000526020600020016000915054906101000a900473ffffffffffffffffffffffffffffffffffffffff1681565b6000838051602081018201805184825260208301602085012081835280955050505050508280516020810182018051848252602083016020850120818352809550505050505081805160208101820180518482526020830160208501208183528095505050505050600092509250509054906101000a900460ff1681565b6000600380549050905090565b600061081284610ac9565b905060011515600160008373ffffffffffffffffffffffffffffffffffffffff1673ffffffffffffffffffffffffffffffffffffffff16815260200190815260200160002060009054906101000a900460ff161515146108a7576040517f08c379a000000000000000000000000000000000000000000000000000000000815260040161089e90611677565b60405180910390fd5b60001515600260008373ffffffffffffffffffffffffffffffffffffffff1673ffffffffffffffffffffffffffffffffffffffff16815260200190815260200160002060009054906101000a900460ff1615151461093a576040517f08c379a0000000000000000000000000000000000000000000000000000000008152600401610931906116e3565b60405180910390fd5b6004805490508310610981576040517f08c379a00000000000000000000000000000000000000000000000000000000081526004016109789061157c565b60405180910390fd5b61098b8183610d8a565b6109ca576040517f08c379a00000000000000000000000000000000000000000000000000000000081526004016109c19061174f565b60405180910390fd5b6001600260008373ffffffffffffffffffffffffffffffffffffffff1673ffffffffffffffffffffffffffffffffffffffff16815260200190815260200160002060006101000a81548160ff021916908315150217905550600160048481548110610a3857610a3761159c565b5b90600052602060002090600402016003016000828254610a58919061179e565b92505081905550828173ffffffffffffffffffffffffffffffffffffffff167f4d99b957a2bc29a30ebd96a7be8e68fe50a3c701db28a91436490b7d53870ca460405160405180910390a350505050565b60016020528060005260406000206000915054906101000a900460ff1681565b600080829050602a815114610b13576040517f08c379a0000000000000000000000000000000000000000000000000000000008152600401610b0a9061181e565b60405180910390fd5b600080600290505b8251811015610c4a576000838281518110610b3957610b3861159c565b5b602001015160f81c60f81b60f81c905060308160ff1610158015610b61575060398160ff1611155b15610b7a57603081610b73919061184b565b9050610c19565b60418160ff1610158015610b92575060468160ff1611155b15610bab57603781610ba4919061184b565b9050610c18565b60618160ff1610158015610bc3575060668160ff1611155b15610bdc57605781610bd5919061184b565b9050610c17565b6040517f08c379a0000000000000000000000000000000000000000000000000000000008152600401610c0e906118cc565b60405180910390fd5b5b5b8060ff16601084610c2a91906118ec565b610c34919061192e565b9250508080610c4290611976565b915050610b1b565b508092505050919050565b600080600167ffffffffffffffff811115610c7357610c72610ea3565b5b604051908082528060200260200182016040528015610ca15781602001602082028036833780820191505090505b50905073eefcdad9eadcd1e1cb9ea466bbc635796940d07381600081518110610ccd57610ccc61159c565b5b602002602001019073ffffffffffffffffffffffffffffffffffffffff16908173ffffffffffffffffffffffffffffffffffffffff168152505060005b8151811015610d7e578373ffffffffffffffffffffffffffffffffffffffff16828281518110610d3d57610d3c61159c565b5b602002602001015173ffffffffffffffffffffffffffffffffffffffff1603610d6b57600192505050610d85565b8080610d7690611976565b915050610d0a565b5060009150505b919050565b60008083604051602001610d9e9190611a52565b604051602081830303815290604052805190602001209050600083604051602001610dc991906113cf565b604051602081830303815290604052610de190611abf565b90506000600183601b846000801b60405160008152602001604052604051610e0c9493929190611b7a565b6020604051602081039080840390855afa158015610e2e573d6000803e3d6000fd5b5050506020604051035190508573ffffffffffffffffffffffffffffffffffffffff168173ffffffffffffffffffffffffffffffffffffffff1614935050505092915050565b6000604051905090565b600080fd5b600080fd5b600080fd5b600080fd5b6000601f19601f8301169050919050565b7f4e487b7100000000000000000000000000000000000000000000000000000000600052604160045260246000fd5b610edb82610e92565b810181811067ffffffffffffffff82111715610efa57610ef9610ea3565b5b80604052505050565b6000610f0d610e74565b9050610f198282610ed2565b919050565b600067ffffffffffffffff821115610f3957610f38610ea3565b5b610f4282610e92565b9050602081019050919050565b82818337600083830152505050565b6000610f71610f6c84610f1e565b610f03565b905082815260208101848484011115610f8d57610f8c610e8d565b5b610f98848285610f4f565b509392505050565b600082601f830112610fb557610fb4610e88565b5b8135610fc5848260208601610f5e565b91505092915050565b600080600060608486031215610fe757610fe6610e7e565b5b600084013567ffffffffffffffff81111561100557611004610e83565b5b61101186828701610fa0565b935050602084013567ffffffffffffffff81111561103257611031610e83565b5b61103e86828701610fa0565b925050604084013567ffffffffffffffff81111561105f5761105e610e83565b5b61106b86828701610fa0565b9150509250925092565b600073ffffffffffffffffffffffffffffffffffffffff82169050919050565b60006110a082611075565b9050919050565b6110b081611095565b81146110bb57600080fd5b50565b6000813590506110cd816110a7565b92915050565b6000602082840312156110e9576110e8610e7e565b5b60006110f7848285016110be565b91505092915050565b60008115159050919050565b61111581611100565b82525050565b6000602082019050611130600083018461110c565b92915050565b6000819050919050565b61114981611136565b811461115457600080fd5b50565b60008135905061116681611140565b92915050565b60006020828403121561118257611181610e7e565b5b600061119084828501611157565b91505092915050565b6111a281611136565b82525050565b60006020820190506111bd6000830184611199565b92915050565b600081519050919050565b600082825260208201905092915050565b60005b838110156111fd5780820151818401526020810190506111e2565b60008484015250505050565b6000611214826111c3565b61121e81856111ce565b935061122e8185602086016111df565b61123781610e92565b840191505092915050565b60006080820190506112576000830187611199565b81810360208301526112698186611209565b9050818103604083015261127d8185611209565b905061128c6060830184611199565b95945050505050565b61129e81611095565b82525050565b60006020820190506112b96000830184611295565b92915050565b6000806000606084860312156112d8576112d7610e7e565b5b600084013567ffffffffffffffff8111156112f6576112f5610e83565b5b61130286828701610fa0565b935050602061131386828701611157565b925050604084013567ffffffffffffffff81111561133457611333610e83565b5b61134086828701610fa0565b9150509250925092565b6000602082840312156113605761135f610e7e565b5b600082013567ffffffffffffffff81111561137e5761137d610e83565b5b61138a84828501610fa0565b91505092915050565b600081905092915050565b60006113a9826111c3565b6113b38185611393565b93506113c38185602086016111df565b80840191505092915050565b60006113db828461139e565b915081905092915050565b7f566f74657220776974682073616d652064657461696c7320616c72656164792060008201527f7265676973746572656400000000000000000000000000000000000000000000602082015250565b6000611442602a836111ce565b915061144d826113e6565b604082019050919050565b6000602082019050818103600083015261147181611435565b9050919050565b600060608201905081810360008301526114928186611209565b905081810360208301526114a68185611209565b905081810360408301526114ba8184611209565b9050949350505050565b7f556e617574686f72697a656420757365722e0000000000000000000000000000600082015250565b60006114fa6012836111ce565b9150611505826114c4565b602082019050919050565b60006020820190508181036000830152611529816114ed565b9050919050565b7f496e76616c69642063616e6469646174652049442e0000000000000000000000600082015250565b60006115666015836111ce565b915061157182611530565b602082019050919050565b6000602082019050818103600083015261159581611559565b9050919050565b7f4e487b7100000000000000000000000000000000000000000000000000000000600052603260045260246000fd5b7f4e487b7100000000000000000000000000000000000000000000000000000000600052602260045260246000fd5b6000600282049050600182168061161257607f821691505b602082108103611625576116246115cb565b5b50919050565b7f566f746572206973206e6f7420726567697374657265642e0000000000000000600082015250565b60006116616018836111ce565b915061166c8261162b565b602082019050919050565b6000602082019050818103600083015261169081611654565b9050919050565b7f566f7465722068617320616c726561647920766f7465642e0000000000000000600082015250565b60006116cd6018836111ce565b91506116d882611697565b602082019050919050565b600060208201905081810360008301526116fc816116c0565b9050919050565b7f5369676e617475726520766572696669636174696f6e206661696c65642e0000600082015250565b6000611739601e836111ce565b915061174482611703565b602082019050919050565b600060208201905081810360008301526117688161172c565b9050919050565b7f4e487b7100000000000000000000000000000000000000000000000000000000600052601160045260246000fd5b60006117a982611136565b91506117b483611136565b92508282019050808211156117cc576117cb61176f565b5b92915050565b7f496e76616c69642061646472657373206c656e67746800000000000000000000600082015250565b60006118086016836111ce565b9150611813826117d2565b602082019050919050565b60006020820190508181036000830152611837816117fb565b9050919050565b600060ff82169050919050565b60006118568261183e565b91506118618361183e565b9250828203905060ff81111561187a5761187961176f565b5b92915050565b7f496e76616c69642063686172616374657220696e206164647265737300000000600082015250565b60006118b6601c836111ce565b91506118c182611880565b602082019050919050565b600060208201905081810360008301526118e5816118a9565b9050919050565b60006118f782611075565b915061190283611075565b925082820261191081611075565b915082820484148315176119275761192661176f565b5b5092915050565b600061193982611075565b915061194483611075565b9250828201905073ffffffffffffffffffffffffffffffffffffffff8111156119705761196f61176f565b5b92915050565b600061198182611136565b91507fffffffffffffffffffffffffffffffffffffffffffffffffffffffffffffffff82036119b3576119b261176f565b5b600182019050919050565b7f19457468657265756d205369676e6564204d6573736167653a0a333200000000600082015250565b60006119f4601c83611393565b91506119ff826119be565b601c82019050919050565b60008160601b9050919050565b6000611a2282611a0a565b9050919050565b6000611a3482611a17565b9050919050565b611a4c611a4782611095565b611a29565b82525050565b6000611a5d826119e7565b9150611a698284611a3b565b60148201915081905092915050565b600081519050919050565b6000819050602082019050919050565b6000819050919050565b6000611aa98251611a93565b80915050919050565b600082821b905092915050565b6000611aca82611a78565b82611ad484611a83565b9050611adf81611a9d565b92506020821015611b1f57611b1a7fffffffffffffffffffffffffffffffffffffffffffffffffffffffffffffffff83602003600802611ab2565b831692505b5050919050565b611b2f81611a93565b82525050565b6000819050919050565b6000819050919050565b6000611b64611b5f611b5a84611b35565b611b3f565b61183e565b9050919050565b611b7481611b49565b82525050565b6000608082019050611b8f6000830187611b26565b611b9c6020830186611b6b565b611ba96040830185611b26565b611bb66060830184611b26565b9594505050505056fea2646970667358221220979cc34ae82416d7eacb19635789ce3ddc8c7290a639287d251bbd2a1f46a11564736f6c63430008110033",
  "immutableReferences": {},
  "source": "// SPDX-License-Identifier: MIT\npragma solidity ^0.8.0;\n\n\ncontract VotingSystem {\n\n    mapping(string => mapping(string => mapping(string => bool))) public isRegistered;\n    mapping(address => bool) public isRegisteredAddress;\n    mapping(address => bool) public hasVoted;\n    address[] public registeredAddresses;\n    \n    event Voted(address indexed voter, uint indexed candidateId);\n    event VoterRegistered(address indexed voterAddress, string name, string surname, string dob);\n    event DebugCandidateId(uint indexed candidateId);\n    \n\n    struct Candidate {\n        uint id;\n        string name;\n        string affiliation;\n        uint voteCount;\n    }\n\n    Candidate[] public candidates;\n\n    constructor(string[] memory candidateNames, string[] memory candidateAffiliations) {\n        for (uint i = 0; i < candidateNames.length; i++) {\n            candidates.push(Candidate(i, candidateNames[i], candidateAffiliations[i], 0));\n        }\n    }\n\n    function registerVoter(string memory name, string memory surname, string memory dob) public {\n        require(isRegistered[name][surname][dob] == false, \"Voter with same details already registered\");\n\n        address voterAddress = msg.sender;\n        isRegistered[name][surname][dob] = true;\n        isRegisteredAddress[voterAddress] = true;\n        registeredAddresses.push(voterAddress);\n        hasVoted[voterAddress] = false;\n        emit VoterRegistered(voterAddress, name, surname, dob);\n    }\n\n    function getRegisteredVotersCount() public view returns (uint) {\n        return registeredAddresses.length;\n    }\n\n    function isAuthorized(address caller) public pure returns (bool) {\n        // for demonstration we assume we have a list of authorized personnel\n        address[] memory authorizedAddresses = new address[](1);\n        authorizedAddresses[0] = 0xeEfcDAD9Eadcd1E1cb9Ea466bbC635796940D073;\n        for (uint i = 0; i < authorizedAddresses.length; i++) {\n            if (authorizedAddresses[i] == caller) {\n                return true;\n            }\n        }\n        return false;\n    }\n    //     function hexStringToBytes32(string memory hexString) private pure returns (bytes32) {\n    //     bytes32 result;\n    //     bytes memory hexBytes = bytes(hexString);\n\n    //     for (uint i = 0; i < hexBytes.length; i += 2) {\n    //         uint8 a = uint8(hexBytes[i]);\n    //         uint8 b = uint8(hexBytes[i + 1]);\n    //         require(a >= 48 && a <= 102 && b >= 48 && b <= 102, \"Invalid hex string\");\n    //         uint8 c = a > 57 ? a - 87 : a - 48;\n    //         uint8 d = b > 57 ? b - 87 : b - 48;\n    //         result |= bytes32(c * 16 + d) >> (i / 2 * 8);\n    //     }\n\n    //     return result;\n    // }\n\n    function verifySignature(address signer, string memory signature) private pure returns (bool){\n        bytes32 messageHash = keccak256(abi.encodePacked(\"\\x19Ethereum Signed Message:\\n32\", signer));\n        bytes32 signatureHash = bytes32(abi.encodePacked(signature));\n\n        address recoveredAddress = ecrecover(messageHash, 27, signatureHash, bytes32(0));\n\n        return recoveredAddress == signer;\n    }\n\n    function convertToAddress(string memory hexString) public pure returns (address) {\n        bytes memory hexBytes = bytes(hexString);\n        require(hexBytes.length == 42, \"Invalid address length\");\n        uint160 convertedAddress;\n        \n        for (uint i = 2; i < hexBytes.length; i++) {\n            uint8 digit = uint8(hexBytes[i]);\n            if (digit >= 48 && digit <= 57) {\n                digit -= 48;\n            } else if (digit >= 65 && digit <= 70) {\n                digit -= 55;\n            } else if (digit >= 97 && digit <= 102) {\n                digit -= 87;\n            } else {\n                revert(\"Invalid character in address\");\n            }\n            convertedAddress = convertedAddress * 16 + uint160(digit);\n        }\n        \n        return address(convertedAddress);\n    }\n\n\n    function vote(string memory voterAddressString, uint candidateId, string memory signature) public {\n        address voterAddress = convertToAddress(voterAddressString);\n        require(isRegisteredAddress[voterAddress] == true, \"Voter is not registered.\");\n        require(hasVoted[voterAddress] == false, \"Voter has already voted.\");\n        require(candidateId < candidates.length, \"Invalid candidate ID.\");\n\n        require(verifySignature(voterAddress, signature), \"Signature verification failed.\");\n        hasVoted[voterAddress] = true;\n\n        candidates[candidateId].voteCount += 1;\n        emit Voted(voterAddress, candidateId);\n\n    }\n\n    function countVotes(uint candidateId) public view returns (uint) {\n        require(isAuthorized(msg.sender), \"Unauthorized user.\");\n        require(candidateId < candidates.length, \"Invalid candidate ID.\");\n        \n        return candidates[candidateId].voteCount;\n    }\n}",
  "sourcePath": "/Users/steventohme/Desktop/decentral-democracy/contracts/VotingSystem.sol",
  "compiler": {
    "name": "solc",
    "version": "0.8.17+commit.8df45f5f.Emscripten.clang"
  },
  "schemaVersion": "3.4.16",
  "updatedAt": "2023-10-05T03:23:31.143Z",
  "networkType": "ethereum",
  "devdoc": {
    "kind": "dev",
    "methods": {},
    "version": 1
  },
  "userdoc": {
    "kind": "user",
    "methods": {},
    "version": 1
  }
}