{
  "contractName": "VotingSystem",
  "abi": [
    {
      "inputs": [
        {
          "internalType": "string[]",
          "name": "candidateNames",
          "type": "string[]"
        },
        {
          "internalType": "string[]",
          "name": "candidateAffiliations",
          "type": "string[]"
        }
      ],
      "stateMutability": "nonpayable",
      "type": "constructor"
    },
    {
      "anonymous": false,
      "inputs": [
        {
          "indexed": true,
          "internalType": "address",
          "name": "voter",
          "type": "address"
        },
        {
          "indexed": true,
          "internalType": "uint256",
          "name": "candidateId",
          "type": "uint256"
        }
      ],
      "name": "Voted",
      "type": "event"
    },
    {
      "inputs": [
        {
          "internalType": "uint256",
          "name": "",
          "type": "uint256"
        }
      ],
      "name": "candidates",
      "outputs": [
        {
          "internalType": "uint256",
          "name": "id",
          "type": "uint256"
        },
        {
          "internalType": "string",
          "name": "name",
          "type": "string"
        },
        {
          "internalType": "string",
          "name": "affiliation",
          "type": "string"
        },
        {
          "internalType": "uint256",
          "name": "voteCount",
          "type": "uint256"
        }
      ],
      "stateMutability": "view",
      "type": "function",
      "constant": true
    },
    {
      "inputs": [
        {
          "internalType": "address",
          "name": "",
          "type": "address"
        }
      ],
      "name": "hasVoted",
      "outputs": [
        {
          "internalType": "bool",
          "name": "",
          "type": "bool"
        }
      ],
      "stateMutability": "view",
      "type": "function",
      "constant": true
    },
    {
      "inputs": [
        {
          "internalType": "uint256",
          "name": "",
          "type": "uint256"
        }
      ],
      "name": "voters",
      "outputs": [
        {
          "internalType": "address",
          "name": "",
          "type": "address"
        }
      ],
      "stateMutability": "view",
      "type": "function",
      "constant": true
    },
    {
      "inputs": [
        {
          "internalType": "address",
          "name": "voterAddress",
          "type": "address"
        }
      ],
      "name": "registerVoter",
      "outputs": [],
      "stateMutability": "nonpayable",
      "type": "function"
    },
    {
      "inputs": [
        {
          "internalType": "uint256",
          "name": "candidateId",
          "type": "uint256"
        }
      ],
      "name": "vote",
      "outputs": [],
      "stateMutability": "nonpayable",
      "type": "function"
    }
  ],
  "bytecode": "0x60806040523480156200001157600080fd5b506040516200126338038062001263833981810160405281019062000037919062000406565b80518251146200007e576040517f08c379a0000000000000000000000000000000000000000000000000000000008152600401620000759062000512565b60405180910390fd5b60005b82518110156200016e5760026040518060800160405280838152602001858481518110620000b457620000b362000534565b5b60200260200101518152602001848481518110620000d757620000d662000534565b5b6020026020010151815260200160008152509080600181540180825580915050600190039060005260206000209060040201600090919091909150600082015181600001556020820151816001019081620001339190620007ae565b5060408201518160020190816200014b9190620007ae565b5060608201518160030155505080806200016590620008c4565b91505062000081565b50505062000911565b6000604051905090565b600080fd5b600080fd5b600080fd5b6000601f19601f8301169050919050565b7f4e487b7100000000000000000000000000000000000000000000000000000000600052604160045260246000fd5b620001db8262000190565b810181811067ffffffffffffffff82111715620001fd57620001fc620001a1565b5b80604052505050565b60006200021262000177565b9050620002208282620001d0565b919050565b600067ffffffffffffffff821115620002435762000242620001a1565b5b602082029050602081019050919050565b600080fd5b600080fd5b600067ffffffffffffffff8211156200027c576200027b620001a1565b5b620002878262000190565b9050602081019050919050565b60005b83811015620002b457808201518184015260208101905062000297565b60008484015250505050565b6000620002d7620002d1846200025e565b62000206565b905082815260208101848484011115620002f657620002f562000259565b5b6200030384828562000294565b509392505050565b600082601f8301126200032357620003226200018b565b5b815162000335848260208601620002c0565b91505092915050565b6000620003556200034f8462000225565b62000206565b905080838252602082019050602084028301858111156200037b576200037a62000254565b5b835b81811015620003c957805167ffffffffffffffff811115620003a457620003a36200018b565b5b808601620003b389826200030b565b855260208501945050506020810190506200037d565b5050509392505050565b600082601f830112620003eb57620003ea6200018b565b5b8151620003fd8482602086016200033e565b91505092915050565b6000806040838503121562000420576200041f62000181565b5b600083015167ffffffffffffffff81111562000441576200044062000186565b5b6200044f85828601620003d3565b925050602083015167ffffffffffffffff81111562000473576200047262000186565b5b6200048185828601620003d3565b9150509250929050565b600082825260208201905092915050565b7f4d69736d61746368206265747765656e206e616d657320616e6420616666696c60008201527f696174696f6e732e000000000000000000000000000000000000000000000000602082015250565b6000620004fa6028836200048b565b915062000507826200049c565b604082019050919050565b600060208201905081810360008301526200052d81620004eb565b9050919050565b7f4e487b7100000000000000000000000000000000000000000000000000000000600052603260045260246000fd5b600081519050919050565b7f4e487b7100000000000000000000000000000000000000000000000000000000600052602260045260246000fd5b60006002820490506001821680620005b657607f821691505b602082108103620005cc57620005cb6200056e565b5b50919050565b60008190508160005260206000209050919050565b60006020601f8301049050919050565b600082821b905092915050565b600060088302620006367fffffffffffffffffffffffffffffffffffffffffffffffffffffffffffffffff82620005f7565b620006428683620005f7565b95508019841693508086168417925050509392505050565b6000819050919050565b6000819050919050565b60006200068f6200068962000683846200065a565b62000664565b6200065a565b9050919050565b6000819050919050565b620006ab836200066e565b620006c3620006ba8262000696565b84845462000604565b825550505050565b600090565b620006da620006cb565b620006e7818484620006a0565b505050565b5b818110156200070f5762000703600082620006d0565b600181019050620006ed565b5050565b601f8211156200075e576200072881620005d2565b6200073384620005e7565b8101602085101562000743578190505b6200075b6200075285620005e7565b830182620006ec565b50505b505050565b600082821c905092915050565b6000620007836000198460080262000763565b1980831691505092915050565b60006200079e838362000770565b9150826002028217905092915050565b620007b98262000563565b67ffffffffffffffff811115620007d557620007d4620001a1565b5b620007e182546200059d565b620007ee82828562000713565b600060209050601f83116001811462000826576000841562000811578287015190505b6200081d858262000790565b8655506200088d565b601f1984166200083686620005d2565b60005b82811015620008605784890151825560018201915060208501945060208101905062000839565b868310156200088057848901516200087c601f89168262000770565b8355505b6001600288020188555050505b505050505050565b7f4e487b7100000000000000000000000000000000000000000000000000000000600052601160045260246000fd5b6000620008d1826200065a565b91507fffffffffffffffffffffffffffffffffffffffffffffffffffffffffffffffff820362000906576200090562000895565b5b600182019050919050565b61094280620009216000396000f3fe608060405234801561001057600080fd5b50600436106100575760003560e01c80630121b93f1461005c57806309eef43e146100785780633477ee2e146100a857806338db6dd3146100db578063da58c7d9146100f7575b600080fd5b61007660048036038101906100719190610524565b610127565b005b610092600480360381019061008d91906105af565b6102d4565b60405161009f91906105f7565b60405180910390f35b6100c260048036038101906100bd9190610524565b6102f4565b6040516100d294939291906106b1565b60405180910390f35b6100f560048036038101906100f091906105af565b610444565b005b610111600480360381019061010c9190610524565b6104aa565b60405161011e9190610713565b60405180910390f35b600160003373ffffffffffffffffffffffffffffffffffffffff1673ffffffffffffffffffffffffffffffffffffffff16815260200190815260200160002060009054906101000a900460ff16156101b4576040517f08c379a00000000000000000000000000000000000000000000000000000000081526004016101ab9061077a565b60405180910390fd5b60028054905081106101fb576040517f08c379a00000000000000000000000000000000000000000000000000000000081526004016101f2906107e6565b60405180910390fd5b60018060003373ffffffffffffffffffffffffffffffffffffffff1673ffffffffffffffffffffffffffffffffffffffff16815260200190815260200160002060006101000a81548160ff0219169083151502179055506002818154811061026657610265610806565b5b9060005260206000209060040201600301600081548092919061028890610864565b9190505550803373ffffffffffffffffffffffffffffffffffffffff167f4d99b957a2bc29a30ebd96a7be8e68fe50a3c701db28a91436490b7d53870ca460405160405180910390a350565b60016020528060005260406000206000915054906101000a900460ff1681565b6002818154811061030457600080fd5b906000526020600020906004020160009150905080600001549080600101805461032d906108db565b80601f0160208091040260200160405190810160405280929190818152602001828054610359906108db565b80156103a65780601f1061037b576101008083540402835291602001916103a6565b820191906000526020600020905b81548152906001019060200180831161038957829003601f168201915b5050505050908060020180546103bb906108db565b80601f01602080910402602001604051908101604052809291908181526020018280546103e7906108db565b80156104345780601f1061040957610100808354040283529160200191610434565b820191906000526020600020905b81548152906001019060200180831161041757829003601f168201915b5050505050908060030154905084565b6000819080600181540180825580915050600190039060005260206000200160009091909190916101000a81548173ffffffffffffffffffffffffffffffffffffffff021916908373ffffffffffffffffffffffffffffffffffffffff16021790555050565b600081815481106104ba57600080fd5b906000526020600020016000915054906101000a900473ffffffffffffffffffffffffffffffffffffffff1681565b600080fd5b6000819050919050565b610501816104ee565b811461050c57600080fd5b50565b60008135905061051e816104f8565b92915050565b60006020828403121561053a576105396104e9565b5b60006105488482850161050f565b91505092915050565b600073ffffffffffffffffffffffffffffffffffffffff82169050919050565b600061057c82610551565b9050919050565b61058c81610571565b811461059757600080fd5b50565b6000813590506105a981610583565b92915050565b6000602082840312156105c5576105c46104e9565b5b60006105d38482850161059a565b91505092915050565b60008115159050919050565b6105f1816105dc565b82525050565b600060208201905061060c60008301846105e8565b92915050565b61061b816104ee565b82525050565b600081519050919050565b600082825260208201905092915050565b60005b8381101561065b578082015181840152602081019050610640565b60008484015250505050565b6000601f19601f8301169050919050565b600061068382610621565b61068d818561062c565b935061069d81856020860161063d565b6106a681610667565b840191505092915050565b60006080820190506106c66000830187610612565b81810360208301526106d88186610678565b905081810360408301526106ec8185610678565b90506106fb6060830184610612565b95945050505050565b61070d81610571565b82525050565b60006020820190506107286000830184610704565b92915050565b7f596f75206861766520616c726561647920766f7465642e000000000000000000600082015250565b600061076460178361062c565b915061076f8261072e565b602082019050919050565b6000602082019050818103600083015261079381610757565b9050919050565b7f496e76616c69642063616e6469646174652049442e0000000000000000000000600082015250565b60006107d060158361062c565b91506107db8261079a565b602082019050919050565b600060208201905081810360008301526107ff816107c3565b9050919050565b7f4e487b7100000000000000000000000000000000000000000000000000000000600052603260045260246000fd5b7f4e487b7100000000000000000000000000000000000000000000000000000000600052601160045260246000fd5b600061086f826104ee565b91507fffffffffffffffffffffffffffffffffffffffffffffffffffffffffffffffff82036108a1576108a0610835565b5b600182019050919050565b7f4e487b7100000000000000000000000000000000000000000000000000000000600052602260045260246000fd5b600060028204905060018216806108f357607f821691505b602082108103610906576109056108ac565b5b5091905056fea264697066735822122009314e5d4390b24209e7489149dbdd9eb98b83fc5c3b7dac6c298a883bf9425d64736f6c63430008110033",
  "immutableReferences": {},
  "source": "// SPDX-License-Identifier: MIT\npragma solidity ^0.8.0;\n\ncontract VotingSystem {\n    address[] public voters;\n    mapping(address => bool) public hasVoted;\n\n    event Voted(address indexed voter, uint indexed candidateId);\n\n    struct Candidate {\n        uint id;\n        string name;\n        string affiliation;\n        uint voteCount;\n    }\n\n    Candidate[] public candidates;\n\n    constructor(string[] memory candidateNames, string[] memory candidateAffiliations) {\n        require(candidateNames.length == candidateAffiliations.length, \"Mismatch between names and affiliations.\");\n        for (uint i = 0; i < candidateNames.length; i++) {\n            candidates.push(Candidate(i, candidateNames[i], candidateAffiliations[i], 0));\n        }\n    }\n\n    function registerVoter(address voterAddress) public {\n        // Only the contract owner or an authorized entity should be able to register voters\n        // TODO: add access control mechanism\n        voters.push(voterAddress);\n    }\n\n    function vote(uint candidateId) public {\n        require(!hasVoted[msg.sender], \"You have already voted.\");\n        require(candidateId < candidates.length, \"Invalid candidate ID.\");\n\n        hasVoted[msg.sender] = true;\n\n        candidates[candidateId].voteCount++;\n\n        emit Voted(msg.sender, candidateId);\n    }\n\n}",
  "sourcePath": "/Users/steventohme/Desktop/decentral-democracy/contracts/VotingSystem.sol",
  "compiler": {
    "name": "solc",
    "version": "0.8.17+commit.8df45f5f.Emscripten.clang"
  },
  "schemaVersion": "3.4.16",
  "updatedAt": "2023-09-16T15:10:36.478Z",
  "networkType": "ethereum",
  "devdoc": {
    "kind": "dev",
    "methods": {},
    "version": 1
  },
  "userdoc": {
    "kind": "user",
    "methods": {},
    "version": 1
  }
}