{
  "contractName": "VotingSystem",
  "abi": [
    {
      "inputs": [
        {
          "internalType": "string[]",
          "name": "candidateNames",
          "type": "string[]"
        },
        {
          "internalType": "string[]",
          "name": "candidateAffiliations",
          "type": "string[]"
        }
      ],
      "stateMutability": "nonpayable",
      "type": "constructor"
    },
    {
      "anonymous": false,
      "inputs": [
        {
          "indexed": true,
          "internalType": "uint256",
          "name": "candidateId",
          "type": "uint256"
        }
      ],
      "name": "DebugCandidateId",
      "type": "event"
    },
    {
      "anonymous": false,
      "inputs": [
        {
          "indexed": true,
          "internalType": "address",
          "name": "voter",
          "type": "address"
        },
        {
          "indexed": true,
          "internalType": "uint256",
          "name": "candidateId",
          "type": "uint256"
        }
      ],
      "name": "Voted",
      "type": "event"
    },
    {
      "anonymous": false,
      "inputs": [
        {
          "indexed": true,
          "internalType": "address",
          "name": "voterAddress",
          "type": "address"
        },
        {
          "indexed": false,
          "internalType": "string",
          "name": "name",
          "type": "string"
        },
        {
          "indexed": false,
          "internalType": "string",
          "name": "surname",
          "type": "string"
        },
        {
          "indexed": false,
          "internalType": "string",
          "name": "dob",
          "type": "string"
        }
      ],
      "name": "VoterRegistered",
      "type": "event"
    },
    {
      "inputs": [
        {
          "internalType": "uint256",
          "name": "",
          "type": "uint256"
        }
      ],
      "name": "candidates",
      "outputs": [
        {
          "internalType": "uint256",
          "name": "id",
          "type": "uint256"
        },
        {
          "internalType": "string",
          "name": "name",
          "type": "string"
        },
        {
          "internalType": "string",
          "name": "affiliation",
          "type": "string"
        },
        {
          "internalType": "uint256",
          "name": "voteCount",
          "type": "uint256"
        }
      ],
      "stateMutability": "view",
      "type": "function",
      "constant": true
    },
    {
      "inputs": [
        {
          "internalType": "address",
          "name": "",
          "type": "address"
        }
      ],
      "name": "hasVoted",
      "outputs": [
        {
          "internalType": "bool",
          "name": "",
          "type": "bool"
        }
      ],
      "stateMutability": "view",
      "type": "function",
      "constant": true
    },
    {
      "inputs": [
        {
          "internalType": "string",
          "name": "",
          "type": "string"
        },
        {
          "internalType": "string",
          "name": "",
          "type": "string"
        },
        {
          "internalType": "string",
          "name": "",
          "type": "string"
        }
      ],
      "name": "isRegistered",
      "outputs": [
        {
          "internalType": "bool",
          "name": "",
          "type": "bool"
        }
      ],
      "stateMutability": "view",
      "type": "function",
      "constant": true
    },
    {
      "inputs": [
        {
          "internalType": "address",
          "name": "",
          "type": "address"
        }
      ],
      "name": "isRegisteredAddress",
      "outputs": [
        {
          "internalType": "bool",
          "name": "",
          "type": "bool"
        }
      ],
      "stateMutability": "view",
      "type": "function",
      "constant": true
    },
    {
      "inputs": [
        {
          "internalType": "uint256",
          "name": "",
          "type": "uint256"
        }
      ],
      "name": "registeredAddresses",
      "outputs": [
        {
          "internalType": "address",
          "name": "",
          "type": "address"
        }
      ],
      "stateMutability": "view",
      "type": "function",
      "constant": true
    },
    {
      "inputs": [
        {
          "internalType": "string",
          "name": "name",
          "type": "string"
        },
        {
          "internalType": "string",
          "name": "surname",
          "type": "string"
        },
        {
          "internalType": "string",
          "name": "dob",
          "type": "string"
        }
      ],
      "name": "registerVoter",
      "outputs": [],
      "stateMutability": "nonpayable",
      "type": "function"
    },
    {
      "inputs": [],
      "name": "getRegisteredVotersCount",
      "outputs": [
        {
          "internalType": "uint256",
          "name": "",
          "type": "uint256"
        }
      ],
      "stateMutability": "view",
      "type": "function",
      "constant": true
    },
    {
      "inputs": [
        {
          "internalType": "address",
          "name": "caller",
          "type": "address"
        }
      ],
      "name": "isAuthorized",
      "outputs": [
        {
          "internalType": "bool",
          "name": "",
          "type": "bool"
        }
      ],
      "stateMutability": "pure",
      "type": "function",
      "constant": true
    },
    {
      "inputs": [
        {
          "internalType": "string",
          "name": "message",
          "type": "string"
        }
      ],
      "name": "getMessageHash",
      "outputs": [
        {
          "internalType": "bytes32",
          "name": "",
          "type": "bytes32"
        }
      ],
      "stateMutability": "pure",
      "type": "function",
      "constant": true
    },
    {
      "inputs": [
        {
          "internalType": "bytes32",
          "name": "messageHash",
          "type": "bytes32"
        }
      ],
      "name": "getEthSignedMessageHash",
      "outputs": [
        {
          "internalType": "bytes32",
          "name": "",
          "type": "bytes32"
        }
      ],
      "stateMutability": "pure",
      "type": "function",
      "constant": true
    },
    {
      "inputs": [
        {
          "internalType": "bytes32",
          "name": "_ethSignedMessageHash",
          "type": "bytes32"
        },
        {
          "internalType": "bytes",
          "name": "_signature",
          "type": "bytes"
        }
      ],
      "name": "recover",
      "outputs": [
        {
          "internalType": "address",
          "name": "",
          "type": "address"
        }
      ],
      "stateMutability": "pure",
      "type": "function",
      "constant": true
    },
    {
      "inputs": [
        {
          "internalType": "string",
          "name": "hexString",
          "type": "string"
        }
      ],
      "name": "convertToAddress",
      "outputs": [
        {
          "internalType": "address",
          "name": "",
          "type": "address"
        }
      ],
      "stateMutability": "pure",
      "type": "function",
      "constant": true
    },
    {
      "inputs": [
        {
          "internalType": "string",
          "name": "voterAddressString",
          "type": "string"
        },
        {
          "internalType": "uint256",
          "name": "candidateId",
          "type": "uint256"
        },
        {
          "internalType": "bytes",
          "name": "signature",
          "type": "bytes"
        }
      ],
      "name": "vote",
      "outputs": [],
      "stateMutability": "nonpayable",
      "type": "function"
    },
    {
      "inputs": [
        {
          "internalType": "uint256",
          "name": "candidateId",
          "type": "uint256"
        }
      ],
      "name": "countVotes",
      "outputs": [
        {
          "internalType": "uint256",
          "name": "",
          "type": "uint256"
        }
      ],
      "stateMutability": "view",
      "type": "function",
      "constant": true
    }
  ],
  "bytecode": "0x60806040523480156200001157600080fd5b5060405162002524380380620025248339818101604052810190620000379190620003bf565b60005b82518110156200012757600460405180608001604052808381526020018584815181106200006d576200006c62000444565b5b6020026020010151815260200184848151811062000090576200008f62000444565b5b6020026020010151815260200160008152509080600181540180825580915050600190039060005260206000209060040201600090919091909150600082015181600001556020820151816001019081620000ec9190620006be565b506040820151816002019081620001049190620006be565b5060608201518160030155505080806200011e90620007d4565b9150506200003a565b50505062000821565b6000604051905090565b600080fd5b600080fd5b600080fd5b6000601f19601f8301169050919050565b7f4e487b7100000000000000000000000000000000000000000000000000000000600052604160045260246000fd5b620001948262000149565b810181811067ffffffffffffffff82111715620001b657620001b56200015a565b5b80604052505050565b6000620001cb62000130565b9050620001d9828262000189565b919050565b600067ffffffffffffffff821115620001fc57620001fb6200015a565b5b602082029050602081019050919050565b600080fd5b600080fd5b600067ffffffffffffffff8211156200023557620002346200015a565b5b620002408262000149565b9050602081019050919050565b60005b838110156200026d57808201518184015260208101905062000250565b60008484015250505050565b6000620002906200028a8462000217565b620001bf565b905082815260208101848484011115620002af57620002ae62000212565b5b620002bc8482856200024d565b509392505050565b600082601f830112620002dc57620002db62000144565b5b8151620002ee84826020860162000279565b91505092915050565b60006200030e6200030884620001de565b620001bf565b905080838252602082019050602084028301858111156200033457620003336200020d565b5b835b818110156200038257805167ffffffffffffffff8111156200035d576200035c62000144565b5b8086016200036c8982620002c4565b8552602085019450505060208101905062000336565b5050509392505050565b600082601f830112620003a457620003a362000144565b5b8151620003b6848260208601620002f7565b91505092915050565b60008060408385031215620003d957620003d86200013a565b5b600083015167ffffffffffffffff811115620003fa57620003f96200013f565b5b62000408858286016200038c565b925050602083015167ffffffffffffffff8111156200042c576200042b6200013f565b5b6200043a858286016200038c565b9150509250929050565b7f4e487b7100000000000000000000000000000000000000000000000000000000600052603260045260246000fd5b600081519050919050565b7f4e487b7100000000000000000000000000000000000000000000000000000000600052602260045260246000fd5b60006002820490506001821680620004c657607f821691505b602082108103620004dc57620004db6200047e565b5b50919050565b60008190508160005260206000209050919050565b60006020601f8301049050919050565b600082821b905092915050565b600060088302620005467fffffffffffffffffffffffffffffffffffffffffffffffffffffffffffffffff8262000507565b62000552868362000507565b95508019841693508086168417925050509392505050565b6000819050919050565b6000819050919050565b60006200059f6200059962000593846200056a565b62000574565b6200056a565b9050919050565b6000819050919050565b620005bb836200057e565b620005d3620005ca82620005a6565b84845462000514565b825550505050565b600090565b620005ea620005db565b620005f7818484620005b0565b505050565b5b818110156200061f5762000613600082620005e0565b600181019050620005fd565b5050565b601f8211156200066e576200063881620004e2565b6200064384620004f7565b8101602085101562000653578190505b6200066b6200066285620004f7565b830182620005fc565b50505b505050565b600082821c905092915050565b6000620006936000198460080262000673565b1980831691505092915050565b6000620006ae838362000680565b9150826002028217905092915050565b620006c98262000473565b67ffffffffffffffff811115620006e557620006e46200015a565b5b620006f18254620004ad565b620006fe82828562000623565b600060209050601f83116001811462000736576000841562000721578287015190505b6200072d8582620006a0565b8655506200079d565b601f1984166200074686620004e2565b60005b82811015620007705784890151825560018201915060208501945060208101905062000749565b868310156200079057848901516200078c601f89168262000680565b8355505b6001600288020188555050505b505050505050565b7f4e487b7100000000000000000000000000000000000000000000000000000000600052601160045260246000fd5b6000620007e1826200056a565b91507fffffffffffffffffffffffffffffffffffffffffffffffffffffffffffffffff8203620008165762000815620007a5565b5b600182019050919050565b611cf380620008316000396000f3fe608060405234801561001057600080fd5b50600436106100ea5760003560e01c80637e0873e31161008c578063db0c7ca811610066578063db0c7ca814610298578063ec65dc34146102c8578063fa540801146102f8578063fe9fbb8014610328576100ea565b80637e0873e31461021a578063a91081a11461024a578063b446f3b214610268576100ea565b80631840f0ca116100c85780631840f0ca1461015757806319045a25146101875780633477ee2e146101b75780636e9b8555146101ea576100ea565b806307439509146100ef57806307556ec11461010b57806309eef43e14610127575b600080fd5b6101096004803603810190610104919061105c565b610358565b005b610125600480360381019061012091906111da565b6105e0565b005b610141600480360381019061013c91906112c3565b6107f2565b60405161014e919061130b565b60405180910390f35b610171600480360381019061016c9190611326565b610812565b60405161017e9190611362565b60405180910390f35b6101a1600480360381019061019c91906113b3565b6108d0565b6040516101ae919061141e565b60405180910390f35b6101d160048036038101906101cc9190611326565b61093f565b6040516101e194939291906114b8565b60405180910390f35b61020460048036038101906101ff9190611326565b610a8f565b604051610211919061141e565b60405180910390f35b610234600480360381019061022f919061105c565b610ace565b604051610241919061130b565b60405180910390f35b610252610b4c565b60405161025f9190611362565b60405180910390f35b610282600480360381019061027d919061150b565b610b59565b60405161028f9190611563565b60405180910390f35b6102b260048036038101906102ad91906112c3565b610b89565b6040516102bf919061130b565b60405180910390f35b6102e260048036038101906102dd919061150b565b610ba9565b6040516102ef919061141e565b60405180910390f35b610312600480360381019061030d919061157e565b610d35565b60405161031f9190611563565b60405180910390f35b610342600480360381019061033d91906112c3565b610d65565b60405161034f919061130b565b60405180910390f35b6000151560008460405161036c91906115e7565b90815260200160405180910390208360405161038891906115e7565b9081526020016040518091039020826040516103a491906115e7565b908152602001604051809103902060009054906101000a900460ff16151514610402576040517f08c379a00000000000000000000000000000000000000000000000000000000081526004016103f990611670565b60405180910390fd5b6000339050600160008560405161041991906115e7565b90815260200160405180910390208460405161043591906115e7565b90815260200160405180910390208360405161045191906115e7565b908152602001604051809103902060006101000a81548160ff02191690831515021790555060018060008373ffffffffffffffffffffffffffffffffffffffff1673ffffffffffffffffffffffffffffffffffffffff16815260200190815260200160002060006101000a81548160ff0219169083151502179055506003819080600181540180825580915050600190039060005260206000200160009091909190916101000a81548173ffffffffffffffffffffffffffffffffffffffff021916908373ffffffffffffffffffffffffffffffffffffffff1602179055506000600260008373ffffffffffffffffffffffffffffffffffffffff1673ffffffffffffffffffffffffffffffffffffffff16815260200190815260200160002060006101000a81548160ff0219169083151502179055508073ffffffffffffffffffffffffffffffffffffffff167ff905e12dedf8b52b886d4f6fa367677b7b02bd1dedeb4d3867a63e345ac7f8f08585856040516105d293929190611690565b60405180910390a250505050565b60006105eb84610ba9565b905060011515600160008373ffffffffffffffffffffffffffffffffffffffff1673ffffffffffffffffffffffffffffffffffffffff16815260200190815260200160002060009054906101000a900460ff16151514610680576040517f08c379a000000000000000000000000000000000000000000000000000000000815260040161067790611728565b60405180910390fd5b60001515600260008373ffffffffffffffffffffffffffffffffffffffff1673ffffffffffffffffffffffffffffffffffffffff16815260200190815260200160002060009054906101000a900460ff16151514610713576040517f08c379a000000000000000000000000000000000000000000000000000000000815260040161070a90611794565b60405180910390fd5b6001600260008373ffffffffffffffffffffffffffffffffffffffff1673ffffffffffffffffffffffffffffffffffffffff16815260200190815260200160002060006101000a81548160ff021916908315150217905550600160048481548110610781576107806117b4565b5b906000526020600020906004020160030160008282546107a19190611812565b92505081905550828173ffffffffffffffffffffffffffffffffffffffff167f4d99b957a2bc29a30ebd96a7be8e68fe50a3c701db28a91436490b7d53870ca460405160405180910390a350505050565b60026020528060005260406000206000915054906101000a900460ff1681565b600061081d33610d65565b61085c576040517f08c379a000000000000000000000000000000000000000000000000000000000815260040161085390611892565b60405180910390fd5b60048054905082106108a3576040517f08c379a000000000000000000000000000000000000000000000000000000000815260040161089a906118fe565b60405180910390fd5b600482815481106108b7576108b66117b4565b5b9060005260206000209060040201600301549050919050565b6000806000806108df85610e9a565b92509250925060018682858560405160008152602001604052604051610908949392919061193a565b6020604051602081039080840390855afa15801561092a573d6000803e3d6000fd5b50505060206040510351935050505092915050565b6004818154811061094f57600080fd5b9060005260206000209060040201600091509050806000015490806001018054610978906119ae565b80601f01602080910402602001604051908101604052809291908181526020018280546109a4906119ae565b80156109f15780601f106109c6576101008083540402835291602001916109f1565b820191906000526020600020905b8154815290600101906020018083116109d457829003601f168201915b505050505090806002018054610a06906119ae565b80601f0160208091040260200160405190810160405280929190818152602001828054610a32906119ae565b8015610a7f5780601f10610a5457610100808354040283529160200191610a7f565b820191906000526020600020905b815481529060010190602001808311610a6257829003601f168201915b5050505050908060030154905084565b60038181548110610a9f57600080fd5b906000526020600020016000915054906101000a900473ffffffffffffffffffffffffffffffffffffffff1681565b6000838051602081018201805184825260208301602085012081835280955050505050508280516020810182018051848252602083016020850120818352809550505050505081805160208101820180518482526020830160208501208183528095505050505050600092509250509054906101000a900460ff1681565b6000600380549050905090565b600081604051602001610b6c91906115e7565b604051602081830303815290604052805190602001209050919050565b60016020528060005260406000206000915054906101000a900460ff1681565b600080829050602a815114610bf3576040517f08c379a0000000000000000000000000000000000000000000000000000000008152600401610bea90611a2b565b60405180910390fd5b600080600290505b8251811015610d2a576000838281518110610c1957610c186117b4565b5b602001015160f81c60f81b60f81c905060308160ff1610158015610c41575060398160ff1611155b15610c5a57603081610c539190611a4b565b9050610cf9565b60418160ff1610158015610c72575060468160ff1611155b15610c8b57603781610c849190611a4b565b9050610cf8565b60618160ff1610158015610ca3575060668160ff1611155b15610cbc57605781610cb59190611a4b565b9050610cf7565b6040517f08c379a0000000000000000000000000000000000000000000000000000000008152600401610cee90611acc565b60405180910390fd5b5b5b8060ff16601084610d0a9190611aec565b610d149190611b2e565b9250508080610d2290611b76565b915050610bfb565b508092505050919050565b600081604051602001610d489190611c2b565b604051602081830303815290604052805190602001209050919050565b600080600167ffffffffffffffff811115610d8357610d82610f31565b5b604051908082528060200260200182016040528015610db15781602001602082028036833780820191505090505b50905073eefcdad9eadcd1e1cb9ea466bbc635796940d07381600081518110610ddd57610ddc6117b4565b5b602002602001019073ffffffffffffffffffffffffffffffffffffffff16908173ffffffffffffffffffffffffffffffffffffffff168152505060005b8151811015610e8e578373ffffffffffffffffffffffffffffffffffffffff16828281518110610e4d57610e4c6117b4565b5b602002602001015173ffffffffffffffffffffffffffffffffffffffff1603610e7b57600192505050610e95565b8080610e8690611b76565b915050610e1a565b5060009150505b919050565b60008060006041845114610ee3576040517f08c379a0000000000000000000000000000000000000000000000000000000008152600401610eda90611c9d565b60405180910390fd5b6020840151925060408401519150606084015160001a90509193909250565b6000604051905090565b600080fd5b600080fd5b600080fd5b600080fd5b6000601f19601f8301169050919050565b7f4e487b7100000000000000000000000000000000000000000000000000000000600052604160045260246000fd5b610f6982610f20565b810181811067ffffffffffffffff82111715610f8857610f87610f31565b5b80604052505050565b6000610f9b610f02565b9050610fa78282610f60565b919050565b600067ffffffffffffffff821115610fc757610fc6610f31565b5b610fd082610f20565b9050602081019050919050565b82818337600083830152505050565b6000610fff610ffa84610fac565b610f91565b90508281526020810184848401111561101b5761101a610f1b565b5b611026848285610fdd565b509392505050565b600082601f83011261104357611042610f16565b5b8135611053848260208601610fec565b91505092915050565b60008060006060848603121561107557611074610f0c565b5b600084013567ffffffffffffffff81111561109357611092610f11565b5b61109f8682870161102e565b935050602084013567ffffffffffffffff8111156110c0576110bf610f11565b5b6110cc8682870161102e565b925050604084013567ffffffffffffffff8111156110ed576110ec610f11565b5b6110f98682870161102e565b9150509250925092565b6000819050919050565b61111681611103565b811461112157600080fd5b50565b6000813590506111338161110d565b92915050565b600067ffffffffffffffff82111561115457611153610f31565b5b61115d82610f20565b9050602081019050919050565b600061117d61117884611139565b610f91565b90508281526020810184848401111561119957611198610f1b565b5b6111a4848285610fdd565b509392505050565b600082601f8301126111c1576111c0610f16565b5b81356111d184826020860161116a565b91505092915050565b6000806000606084860312156111f3576111f2610f0c565b5b600084013567ffffffffffffffff81111561121157611210610f11565b5b61121d8682870161102e565b935050602061122e86828701611124565b925050604084013567ffffffffffffffff81111561124f5761124e610f11565b5b61125b868287016111ac565b9150509250925092565b600073ffffffffffffffffffffffffffffffffffffffff82169050919050565b600061129082611265565b9050919050565b6112a081611285565b81146112ab57600080fd5b50565b6000813590506112bd81611297565b92915050565b6000602082840312156112d9576112d8610f0c565b5b60006112e7848285016112ae565b91505092915050565b60008115159050919050565b611305816112f0565b82525050565b600060208201905061132060008301846112fc565b92915050565b60006020828403121561133c5761133b610f0c565b5b600061134a84828501611124565b91505092915050565b61135c81611103565b82525050565b60006020820190506113776000830184611353565b92915050565b6000819050919050565b6113908161137d565b811461139b57600080fd5b50565b6000813590506113ad81611387565b92915050565b600080604083850312156113ca576113c9610f0c565b5b60006113d88582860161139e565b925050602083013567ffffffffffffffff8111156113f9576113f8610f11565b5b611405858286016111ac565b9150509250929050565b61141881611285565b82525050565b6000602082019050611433600083018461140f565b92915050565b600081519050919050565b600082825260208201905092915050565b60005b83811015611473578082015181840152602081019050611458565b60008484015250505050565b600061148a82611439565b6114948185611444565b93506114a4818560208601611455565b6114ad81610f20565b840191505092915050565b60006080820190506114cd6000830187611353565b81810360208301526114df818661147f565b905081810360408301526114f3818561147f565b90506115026060830184611353565b95945050505050565b60006020828403121561152157611520610f0c565b5b600082013567ffffffffffffffff81111561153f5761153e610f11565b5b61154b8482850161102e565b91505092915050565b61155d8161137d565b82525050565b60006020820190506115786000830184611554565b92915050565b60006020828403121561159457611593610f0c565b5b60006115a28482850161139e565b91505092915050565b600081905092915050565b60006115c182611439565b6115cb81856115ab565b93506115db818560208601611455565b80840191505092915050565b60006115f382846115b6565b915081905092915050565b7f566f74657220776974682073616d652064657461696c7320616c72656164792060008201527f7265676973746572656400000000000000000000000000000000000000000000602082015250565b600061165a602a83611444565b9150611665826115fe565b604082019050919050565b600060208201905081810360008301526116898161164d565b9050919050565b600060608201905081810360008301526116aa818661147f565b905081810360208301526116be818561147f565b905081810360408301526116d2818461147f565b9050949350505050565b7f566f746572206973206e6f7420726567697374657265642e0000000000000000600082015250565b6000611712601883611444565b915061171d826116dc565b602082019050919050565b6000602082019050818103600083015261174181611705565b9050919050565b7f566f7465722068617320616c726561647920766f7465642e0000000000000000600082015250565b600061177e601883611444565b915061178982611748565b602082019050919050565b600060208201905081810360008301526117ad81611771565b9050919050565b7f4e487b7100000000000000000000000000000000000000000000000000000000600052603260045260246000fd5b7f4e487b7100000000000000000000000000000000000000000000000000000000600052601160045260246000fd5b600061181d82611103565b915061182883611103565b92508282019050808211156118405761183f6117e3565b5b92915050565b7f556e617574686f72697a656420757365722e0000000000000000000000000000600082015250565b600061187c601283611444565b915061188782611846565b602082019050919050565b600060208201905081810360008301526118ab8161186f565b9050919050565b7f496e76616c69642063616e6469646174652049442e0000000000000000000000600082015250565b60006118e8601583611444565b91506118f3826118b2565b602082019050919050565b60006020820190508181036000830152611917816118db565b9050919050565b600060ff82169050919050565b6119348161191e565b82525050565b600060808201905061194f6000830187611554565b61195c602083018661192b565b6119696040830185611554565b6119766060830184611554565b95945050505050565b7f4e487b7100000000000000000000000000000000000000000000000000000000600052602260045260246000fd5b600060028204905060018216806119c657607f821691505b6020821081036119d9576119d861197f565b5b50919050565b7f496e76616c69642061646472657373206c656e67746800000000000000000000600082015250565b6000611a15601683611444565b9150611a20826119df565b602082019050919050565b60006020820190508181036000830152611a4481611a08565b9050919050565b6000611a568261191e565b9150611a618361191e565b9250828203905060ff811115611a7a57611a796117e3565b5b92915050565b7f496e76616c69642063686172616374657220696e206164647265737300000000600082015250565b6000611ab6601c83611444565b9150611ac182611a80565b602082019050919050565b60006020820190508181036000830152611ae581611aa9565b9050919050565b6000611af782611265565b9150611b0283611265565b9250828202611b1081611265565b91508282048414831517611b2757611b266117e3565b5b5092915050565b6000611b3982611265565b9150611b4483611265565b9250828201905073ffffffffffffffffffffffffffffffffffffffff811115611b7057611b6f6117e3565b5b92915050565b6000611b8182611103565b91507fffffffffffffffffffffffffffffffffffffffffffffffffffffffffffffffff8203611bb357611bb26117e3565b5b600182019050919050565b7f19457468657265756d205369676e6564204d6573736167653a0a333200000000600082015250565b6000611bf4601c836115ab565b9150611bff82611bbe565b601c82019050919050565b6000819050919050565b611c25611c208261137d565b611c0a565b82525050565b6000611c3682611be7565b9150611c428284611c14565b60208201915081905092915050565b7f496e76616c6964207369676e6174757265206c656e6774680000000000000000600082015250565b6000611c87601883611444565b9150611c9282611c51565b602082019050919050565b60006020820190508181036000830152611cb681611c7a565b905091905056fea26469706673582212205cba8028fb04fdb77a7e9b218248d82e899e1d82264625e954cda7c402c1394564736f6c63430008110033",
  "immutableReferences": {},
  "source": "// SPDX-License-Identifier: MIT\npragma solidity ^0.8.0;\n\n\ncontract VotingSystem {\n\n    mapping(string => mapping(string => mapping(string => bool))) public isRegistered;\n    mapping(address => bool) public isRegisteredAddress;\n    mapping(address => bool) public hasVoted;\n    address[] public registeredAddresses;\n    \n    event Voted(address indexed voter, uint indexed candidateId);\n    event VoterRegistered(address indexed voterAddress, string name, string surname, string dob);\n    event DebugCandidateId(uint indexed candidateId);\n    \n\n    struct Candidate {\n        uint id;\n        string name;\n        string affiliation;\n        uint voteCount;\n    }\n\n    Candidate[] public candidates;\n\n    constructor(string[] memory candidateNames, string[] memory candidateAffiliations) {\n        for (uint i = 0; i < candidateNames.length; i++) {\n            candidates.push(Candidate(i, candidateNames[i], candidateAffiliations[i], 0));\n        }\n    }\n\n    function registerVoter(string memory name, string memory surname, string memory dob) public {\n        require(isRegistered[name][surname][dob] == false, \"Voter with same details already registered\");\n\n        address voterAddress = msg.sender;\n        isRegistered[name][surname][dob] = true;\n        isRegisteredAddress[voterAddress] = true;\n        registeredAddresses.push(voterAddress);\n        hasVoted[voterAddress] = false;\n        emit VoterRegistered(voterAddress, name, surname, dob);\n    }\n\n    function getRegisteredVotersCount() public view returns (uint) {\n        return registeredAddresses.length;\n    }\n\n    function isAuthorized(address caller) public pure returns (bool) {\n        // for demonstration we assume we have a list of authorized personnel\n        address[] memory authorizedAddresses = new address[](1);\n        authorizedAddresses[0] = 0xeEfcDAD9Eadcd1E1cb9Ea466bbC635796940D073;\n        for (uint i = 0; i < authorizedAddresses.length; i++) {\n            if (authorizedAddresses[i] == caller) {\n                return true;\n            }\n        }\n        return false;\n    }\n\n    function getMessageHash(string memory message) public pure returns (bytes32) {\n        return keccak256(abi.encodePacked(message));\n    }\n\n    function getEthSignedMessageHash(bytes32 messageHash) public pure returns (bytes32) {\n        return keccak256(abi.encodePacked(\"\\x19Ethereum Signed Message:\\n32\", messageHash));\n    }\n\n    function splitSignature(bytes memory sig) internal pure returns (bytes32 r, bytes32 s, uint8 v) {\n        require(sig.length == 65, \"Invalid signature length\");\n        \n        assembly {\n            r := mload(add(sig, 32))\n            s := mload(add(sig, 64))\n            v := byte(0, mload(add(sig, 96)))\n        }\n    }\n\n    function recover(bytes32 _ethSignedMessageHash, bytes memory _signature) public pure returns (address) {\n        (bytes32 r, bytes32 s, uint8 v) = splitSignature(_signature);\n        return ecrecover(_ethSignedMessageHash, v, r, s);\n    }\n\n    function verifySignature(address signer, string memory message, bytes memory signature) private pure returns (bool){\n        bytes32 messageHash = getMessageHash(message);\n        bytes32 ethSignedMessageHash = getEthSignedMessageHash(messageHash);\n\n        return recover(ethSignedMessageHash, signature) == signer;\n\n    }\n\n    function convertToAddress(string memory hexString) public pure returns (address) {\n        bytes memory hexBytes = bytes(hexString);\n        require(hexBytes.length == 42, \"Invalid address length\");\n        uint160 convertedAddress;\n        \n        for (uint i = 2; i < hexBytes.length; i++) {\n            uint8 digit = uint8(hexBytes[i]);\n            if (digit >= 48 && digit <= 57) {\n                digit -= 48;\n            } else if (digit >= 65 && digit <= 70) {\n                digit -= 55;\n            } else if (digit >= 97 && digit <= 102) {\n                digit -= 87;\n            } else {\n                revert(\"Invalid character in address\");\n            }\n            convertedAddress = convertedAddress * 16 + uint160(digit);\n        }\n        \n        return address(convertedAddress);\n    }\n\n\n    function vote(string memory voterAddressString, uint candidateId, bytes memory signature) public {\n        address voterAddress = convertToAddress(voterAddressString);\n        require(isRegisteredAddress[voterAddress] == true, \"Voter is not registered.\");\n        require(hasVoted[voterAddress] == false, \"Voter has already voted.\");\n\n        // require(verifySignature(voterAddress, candidateId, signature), \"Signature verification failed.\");\n        hasVoted[voterAddress] = true;\n\n        candidates[candidateId].voteCount += 1;\n        emit Voted(voterAddress, candidateId);\n\n    }\n\n    function countVotes(uint candidateId) public view returns (uint) {\n        require(isAuthorized(msg.sender), \"Unauthorized user.\");\n        require(candidateId < candidates.length, \"Invalid candidate ID.\");\n        \n        return candidates[candidateId].voteCount;\n    }\n}",
  "sourcePath": "/Users/steventohme/Desktop/decentral-democracy/contracts/VotingSystem.sol",
  "compiler": {
    "name": "solc",
    "version": "0.8.17+commit.8df45f5f.Emscripten.clang"
  },
  "schemaVersion": "3.4.16",
  "updatedAt": "2023-10-13T00:11:50.065Z",
  "networkType": "ethereum",
  "devdoc": {
    "kind": "dev",
    "methods": {},
    "version": 1
  },
  "userdoc": {
    "kind": "user",
    "methods": {},
    "version": 1
  }
}