{
  "contractName": "VotingSystem",
  "abi": [
    {
      "inputs": [
        {
          "internalType": "string[]",
          "name": "candidateNames",
          "type": "string[]"
        },
        {
          "internalType": "string[]",
          "name": "candidateAffiliations",
          "type": "string[]"
        }
      ],
      "stateMutability": "nonpayable",
      "type": "constructor"
    },
    {
      "inputs": [
        {
          "internalType": "uint256",
          "name": "",
          "type": "uint256"
        }
      ],
      "name": "candidates",
      "outputs": [
        {
          "internalType": "uint256",
          "name": "id",
          "type": "uint256"
        },
        {
          "internalType": "string",
          "name": "name",
          "type": "string"
        },
        {
          "internalType": "string",
          "name": "affiliation",
          "type": "string"
        },
        {
          "internalType": "uint256",
          "name": "voteCount",
          "type": "uint256"
        }
      ],
      "stateMutability": "view",
      "type": "function"
    },
    {
      "inputs": [
        {
          "internalType": "address",
          "name": "",
          "type": "address"
        }
      ],
      "name": "hasVoted",
      "outputs": [
        {
          "internalType": "bool",
          "name": "",
          "type": "bool"
        }
      ],
      "stateMutability": "view",
      "type": "function"
    },
    {
      "inputs": [
        {
          "internalType": "uint256",
          "name": "",
          "type": "uint256"
        }
      ],
      "name": "voters",
      "outputs": [
        {
          "internalType": "address",
          "name": "",
          "type": "address"
        }
      ],
      "stateMutability": "view",
      "type": "function"
    }
  ],
  "bytecode": "0x608060405234801562000010575f80fd5b5060405162000e1538038062000e158339818101604052810190620000369190620003ec565b80518251146200007d576040517f08c379a00000000000000000000000000000000000000000000000000000000081526004016200007490620004f3565b60405180910390fd5b5f5b8251811015620001665760026040518060800160405280838152602001858481518110620000b257620000b162000513565b5b60200260200101518152602001848481518110620000d557620000d462000513565b5b602002602001015181526020015f815250908060018154018082558091505060019003905f5260205f2090600402015f909190919091505f820151815f015560208201518160010190816200012b919062000777565b50604082015181600201908162000143919062000777565b5060608201518160030155505080806200015d9062000888565b9150506200007f565b505050620008d4565b5f604051905090565b5f80fd5b5f80fd5b5f80fd5b5f601f19601f8301169050919050565b7f4e487b71000000000000000000000000000000000000000000000000000000005f52604160045260245ffd5b620001cc8262000184565b810181811067ffffffffffffffff82111715620001ee57620001ed62000194565b5b80604052505050565b5f620002026200016f565b9050620002108282620001c1565b919050565b5f67ffffffffffffffff82111562000232576200023162000194565b5b602082029050602081019050919050565b5f80fd5b5f80fd5b5f67ffffffffffffffff82111562000268576200026762000194565b5b620002738262000184565b9050602081019050919050565b5f5b838110156200029f57808201518184015260208101905062000282565b5f8484015250505050565b5f620002c0620002ba846200024b565b620001f7565b905082815260208101848484011115620002df57620002de62000247565b5b620002ec84828562000280565b509392505050565b5f82601f8301126200030b576200030a62000180565b5b81516200031d848260208601620002aa565b91505092915050565b5f6200033c620003368462000215565b620001f7565b9050808382526020820190506020840283018581111562000362576200036162000243565b5b835b81811015620003b057805167ffffffffffffffff8111156200038b576200038a62000180565b5b8086016200039a8982620002f4565b8552602085019450505060208101905062000364565b5050509392505050565b5f82601f830112620003d157620003d062000180565b5b8151620003e384826020860162000326565b91505092915050565b5f806040838503121562000405576200040462000178565b5b5f83015167ffffffffffffffff8111156200042557620004246200017c565b5b6200043385828601620003ba565b925050602083015167ffffffffffffffff8111156200045757620004566200017c565b5b6200046585828601620003ba565b9150509250929050565b5f82825260208201905092915050565b7f4d69736d61746368206265747765656e206e616d657320616e6420616666696c5f8201527f696174696f6e732e000000000000000000000000000000000000000000000000602082015250565b5f620004db6028836200046f565b9150620004e8826200047f565b604082019050919050565b5f6020820190508181035f8301526200050c81620004cd565b9050919050565b7f4e487b71000000000000000000000000000000000000000000000000000000005f52603260045260245ffd5b5f81519050919050565b7f4e487b71000000000000000000000000000000000000000000000000000000005f52602260045260245ffd5b5f60028204905060018216806200058f57607f821691505b602082108103620005a557620005a46200054a565b5b50919050565b5f819050815f5260205f209050919050565b5f6020601f8301049050919050565b5f82821b905092915050565b5f60088302620006097fffffffffffffffffffffffffffffffffffffffffffffffffffffffffffffffff82620005cc565b620006158683620005cc565b95508019841693508086168417925050509392505050565b5f819050919050565b5f819050919050565b5f6200065f6200065962000653846200062d565b62000636565b6200062d565b9050919050565b5f819050919050565b6200067a836200063f565b62000692620006898262000666565b848454620005d8565b825550505050565b5f90565b620006a86200069a565b620006b58184846200066f565b505050565b5b81811015620006dc57620006d05f826200069e565b600181019050620006bb565b5050565b601f8211156200072b57620006f581620005ab565b6200070084620005bd565b8101602085101562000710578190505b620007286200071f85620005bd565b830182620006ba565b50505b505050565b5f82821c905092915050565b5f6200074d5f198460080262000730565b1980831691505092915050565b5f6200076783836200073c565b9150826002028217905092915050565b620007828262000540565b67ffffffffffffffff8111156200079e576200079d62000194565b5b620007aa825462000577565b620007b7828285620006e0565b5f60209050601f831160018114620007ed575f8415620007d8578287015190505b620007e485826200075a565b86555062000853565b601f198416620007fd86620005ab565b5f5b828110156200082657848901518255600182019150602085019450602081019050620007ff565b8683101562000846578489015162000842601f8916826200073c565b8355505b6001600288020188555050505b505050505050565b7f4e487b71000000000000000000000000000000000000000000000000000000005f52601160045260245ffd5b5f62000894826200062d565b91507fffffffffffffffffffffffffffffffffffffffffffffffffffffffffffffffff8203620008c957620008c86200085b565b5b600182019050919050565b61053380620008e25f395ff3fe608060405234801561000f575f80fd5b506004361061003f575f3560e01c806309eef43e146100435780633477ee2e14610073578063da58c7d9146100a6575b5f80fd5b61005d600480360381019061005891906102d2565b6100d6565b60405161006a9190610317565b60405180910390f35b61008d60048036038101906100889190610363565b6100f3565b60405161009d9493929190610427565b60405180910390f35b6100c060048036038101906100bb9190610363565b61023a565b6040516100cd9190610487565b60405180910390f35b6001602052805f5260405f205f915054906101000a900460ff1681565b60028181548110610102575f80fd5b905f5260205f2090600402015f91509050805f015490806001018054610127906104cd565b80601f0160208091040260200160405190810160405280929190818152602001828054610153906104cd565b801561019e5780601f106101755761010080835404028352916020019161019e565b820191905f5260205f20905b81548152906001019060200180831161018157829003601f168201915b5050505050908060020180546101b3906104cd565b80601f01602080910402602001604051908101604052809291908181526020018280546101df906104cd565b801561022a5780601f106102015761010080835404028352916020019161022a565b820191905f5260205f20905b81548152906001019060200180831161020d57829003601f168201915b5050505050908060030154905084565b5f8181548110610248575f80fd5b905f5260205f20015f915054906101000a900473ffffffffffffffffffffffffffffffffffffffff1681565b5f80fd5b5f73ffffffffffffffffffffffffffffffffffffffff82169050919050565b5f6102a182610278565b9050919050565b6102b181610297565b81146102bb575f80fd5b50565b5f813590506102cc816102a8565b92915050565b5f602082840312156102e7576102e6610274565b5b5f6102f4848285016102be565b91505092915050565b5f8115159050919050565b610311816102fd565b82525050565b5f60208201905061032a5f830184610308565b92915050565b5f819050919050565b61034281610330565b811461034c575f80fd5b50565b5f8135905061035d81610339565b92915050565b5f6020828403121561037857610377610274565b5b5f6103858482850161034f565b91505092915050565b61039781610330565b82525050565b5f81519050919050565b5f82825260208201905092915050565b5f5b838110156103d45780820151818401526020810190506103b9565b5f8484015250505050565b5f601f19601f8301169050919050565b5f6103f98261039d565b61040381856103a7565b93506104138185602086016103b7565b61041c816103df565b840191505092915050565b5f60808201905061043a5f83018761038e565b818103602083015261044c81866103ef565b9050818103604083015261046081856103ef565b905061046f606083018461038e565b95945050505050565b61048181610297565b82525050565b5f60208201905061049a5f830184610478565b92915050565b7f4e487b71000000000000000000000000000000000000000000000000000000005f52602260045260245ffd5b5f60028204905060018216806104e457607f821691505b6020821081036104f7576104f66104a0565b5b5091905056fea2646970667358221220ee59d6affa39446cec8032fb0f95c7cf0247f1ce5d9f84d540d025e92a16be2064736f6c63430008150033",
  "immutableReferences": {},
  "source": "// SPDX-License-Identifier: MIT\npragma solidity ^0.8.0;\n\ncontract VotingSystem {\n    address[] public voters;\n    mapping(address => bool) public hasVoted;\n\n    struct Candidate {\n        uint id;\n        string name;\n        string affiliation;\n        uint voteCount;\n    }\n\n    Candidate[] public candidates;\n\n    constructor(string[] memory candidateNames, string[] memory candidateAffiliations) {\n        require(candidateNames.length == candidateAffiliations.length, \"Mismatch between names and affiliations.\");\n        for (uint i = 0; i < candidateNames.length; i++) {\n            candidates.push(Candidate(i, candidateNames[i], candidateAffiliations[i], 0));\n        }\n    }\n\n}",
  "sourcePath": "/Users/steventohme/Desktop/decentral-democracy/contracts/VotingSystem.sol",
  "compiler": {
    "name": "solc",
    "version": "0.8.21+commit.d9974bed.Emscripten.clang"
  },
  "schemaVersion": "3.4.16",
  "updatedAt": "2023-09-16T14:46:32.808Z",
  "devdoc": {
    "kind": "dev",
    "methods": {},
    "version": 1
  },
  "userdoc": {
    "kind": "user",
    "methods": {},
    "version": 1
  }
}