{
  "contractName": "VotingSystem",
  "abi": [
    {
      "inputs": [
        {
          "internalType": "string[]",
          "name": "candidateNames",
          "type": "string[]"
        },
        {
          "internalType": "string[]",
          "name": "candidateAffiliations",
          "type": "string[]"
        }
      ],
      "stateMutability": "nonpayable",
      "type": "constructor"
    },
    {
      "anonymous": false,
      "inputs": [
        {
          "indexed": true,
          "internalType": "uint256",
          "name": "candidateId",
          "type": "uint256"
        }
      ],
      "name": "DebugCandidateId",
      "type": "event"
    },
    {
      "anonymous": false,
      "inputs": [
        {
          "indexed": false,
          "internalType": "string",
          "name": "message",
          "type": "string"
        },
        {
          "indexed": true,
          "internalType": "address",
          "name": "voterAddress",
          "type": "address"
        }
      ],
      "name": "DebugLog",
      "type": "event"
    },
    {
      "anonymous": false,
      "inputs": [
        {
          "indexed": true,
          "internalType": "address",
          "name": "voter",
          "type": "address"
        },
        {
          "indexed": true,
          "internalType": "uint256",
          "name": "candidateId",
          "type": "uint256"
        }
      ],
      "name": "Voted",
      "type": "event"
    },
    {
      "inputs": [
        {
          "internalType": "uint256",
          "name": "",
          "type": "uint256"
        }
      ],
      "name": "addressRegistered",
      "outputs": [
        {
          "internalType": "address",
          "name": "",
          "type": "address"
        }
      ],
      "stateMutability": "view",
      "type": "function"
    },
    {
      "inputs": [
        {
          "internalType": "uint256",
          "name": "",
          "type": "uint256"
        }
      ],
      "name": "addressVoted",
      "outputs": [
        {
          "internalType": "address",
          "name": "",
          "type": "address"
        }
      ],
      "stateMutability": "view",
      "type": "function"
    },
    {
      "inputs": [
        {
          "internalType": "uint256",
          "name": "",
          "type": "uint256"
        }
      ],
      "name": "candidates",
      "outputs": [
        {
          "internalType": "uint256",
          "name": "id",
          "type": "uint256"
        },
        {
          "internalType": "string",
          "name": "name",
          "type": "string"
        },
        {
          "internalType": "string",
          "name": "affiliation",
          "type": "string"
        },
        {
          "internalType": "uint256",
          "name": "voteCount",
          "type": "uint256"
        }
      ],
      "stateMutability": "view",
      "type": "function"
    },
    {
      "inputs": [
        {
          "internalType": "address",
          "name": "",
          "type": "address"
        }
      ],
      "name": "hasVoted",
      "outputs": [
        {
          "internalType": "bool",
          "name": "",
          "type": "bool"
        }
      ],
      "stateMutability": "view",
      "type": "function"
    },
    {
      "inputs": [
        {
          "internalType": "address",
          "name": "",
          "type": "address"
        }
      ],
      "name": "isRegistered",
      "outputs": [
        {
          "internalType": "bool",
          "name": "",
          "type": "bool"
        }
      ],
      "stateMutability": "view",
      "type": "function"
    },
    {
      "inputs": [
        {
          "internalType": "uint256",
          "name": "",
          "type": "uint256"
        }
      ],
      "name": "voters",
      "outputs": [
        {
          "internalType": "address",
          "name": "",
          "type": "address"
        }
      ],
      "stateMutability": "view",
      "type": "function"
    },
    {
      "inputs": [
        {
          "internalType": "address",
          "name": "voterAddress",
          "type": "address"
        }
      ],
      "name": "registerVoter",
      "outputs": [],
      "stateMutability": "nonpayable",
      "type": "function"
    },
    {
      "inputs": [
        {
          "internalType": "address",
          "name": "caller",
          "type": "address"
        }
      ],
      "name": "isAuthorized",
      "outputs": [
        {
          "internalType": "bool",
          "name": "",
          "type": "bool"
        }
      ],
      "stateMutability": "pure",
      "type": "function"
    },
    {
      "inputs": [
        {
          "internalType": "uint256",
          "name": "candidateId",
          "type": "uint256"
        }
      ],
      "name": "vote",
      "outputs": [],
      "stateMutability": "nonpayable",
      "type": "function"
    },
    {
      "inputs": [
        {
          "internalType": "uint256",
          "name": "candidateId",
          "type": "uint256"
        }
      ],
      "name": "countVotes",
      "outputs": [
        {
          "internalType": "uint256",
          "name": "",
          "type": "uint256"
        }
      ],
      "stateMutability": "view",
      "type": "function"
    }
  ],
  "bytecode": "0x60806040523480156200001157600080fd5b5060405162001abf38038062001abf833981810160405281019062000037919062000406565b80518251146200007e576040517f08c379a0000000000000000000000000000000000000000000000000000000008152600401620000759062000512565b60405180910390fd5b60005b82518110156200016e5760056040518060800160405280838152602001858481518110620000b457620000b362000534565b5b60200260200101518152602001848481518110620000d757620000d662000534565b5b6020026020010151815260200160008152509080600181540180825580915050600190039060005260206000209060040201600090919091909150600082015181600001556020820151816001019081620001339190620007ae565b5060408201518160020190816200014b9190620007ae565b5060608201518160030155505080806200016590620008c4565b91505062000081565b50505062000911565b6000604051905090565b600080fd5b600080fd5b600080fd5b6000601f19601f8301169050919050565b7f4e487b7100000000000000000000000000000000000000000000000000000000600052604160045260246000fd5b620001db8262000190565b810181811067ffffffffffffffff82111715620001fd57620001fc620001a1565b5b80604052505050565b60006200021262000177565b9050620002208282620001d0565b919050565b600067ffffffffffffffff821115620002435762000242620001a1565b5b602082029050602081019050919050565b600080fd5b600080fd5b600067ffffffffffffffff8211156200027c576200027b620001a1565b5b620002878262000190565b9050602081019050919050565b60005b83811015620002b457808201518184015260208101905062000297565b60008484015250505050565b6000620002d7620002d1846200025e565b62000206565b905082815260208101848484011115620002f657620002f562000259565b5b6200030384828562000294565b509392505050565b600082601f8301126200032357620003226200018b565b5b815162000335848260208601620002c0565b91505092915050565b6000620003556200034f8462000225565b62000206565b905080838252602082019050602084028301858111156200037b576200037a62000254565b5b835b81811015620003c957805167ffffffffffffffff811115620003a457620003a36200018b565b5b808601620003b389826200030b565b855260208501945050506020810190506200037d565b5050509392505050565b600082601f830112620003eb57620003ea6200018b565b5b8151620003fd8482602086016200033e565b91505092915050565b6000806040838503121562000420576200041f62000181565b5b600083015167ffffffffffffffff81111562000441576200044062000186565b5b6200044f85828601620003d3565b925050602083015167ffffffffffffffff81111562000473576200047262000186565b5b6200048185828601620003d3565b9150509250929050565b600082825260208201905092915050565b7f4d69736d61746368206265747765656e206e616d657320616e6420616666696c60008201527f696174696f6e732e000000000000000000000000000000000000000000000000602082015250565b6000620004fa6028836200048b565b915062000507826200049c565b604082019050919050565b600060208201905081810360008301526200052d81620004eb565b9050919050565b7f4e487b7100000000000000000000000000000000000000000000000000000000600052603260045260246000fd5b600081519050919050565b7f4e487b7100000000000000000000000000000000000000000000000000000000600052602260045260246000fd5b60006002820490506001821680620005b657607f821691505b602082108103620005cc57620005cb6200056e565b5b50919050565b60008190508160005260206000209050919050565b60006020601f8301049050919050565b600082821b905092915050565b600060088302620006367fffffffffffffffffffffffffffffffffffffffffffffffffffffffffffffffff82620005f7565b620006428683620005f7565b95508019841693508086168417925050509392505050565b6000819050919050565b6000819050919050565b60006200068f6200068962000683846200065a565b62000664565b6200065a565b9050919050565b6000819050919050565b620006ab836200066e565b620006c3620006ba8262000696565b84845462000604565b825550505050565b600090565b620006da620006cb565b620006e7818484620006a0565b505050565b5b818110156200070f5762000703600082620006d0565b600181019050620006ed565b5050565b601f8211156200075e576200072881620005d2565b6200073384620005e7565b8101602085101562000743578190505b6200075b6200075285620005e7565b830182620006ec565b50505b505050565b600082821c905092915050565b6000620007836000198460080262000763565b1980831691505092915050565b60006200079e838362000770565b9150826002028217905092915050565b620007b98262000563565b67ffffffffffffffff811115620007d557620007d4620001a1565b5b620007e182546200059d565b620007ee82828562000713565b600060209050601f83116001811462000826576000841562000811578287015190505b6200081d858262000790565b8655506200088d565b601f1984166200083686620005d2565b60005b82811015620008605784890151825560018201915060208501945060208101905062000839565b868310156200088057848901516200087c601f89168262000770565b8355505b6001600288020188555050505b505050505050565b7f4e487b7100000000000000000000000000000000000000000000000000000000600052601160045260246000fd5b6000620008d1826200065a565b91507fffffffffffffffffffffffffffffffffffffffffffffffffffffffffffffffff820362000906576200090562000895565b5b600182019050919050565b61119e80620009216000396000f3fe608060405234801561001057600080fd5b506004361061009e5760003560e01c806338db6dd31161006657806338db6dd3146101825780637a84565e1461019e578063c3c5a547146101ce578063da58c7d9146101fe578063fe9fbb801461022e5761009e565b80630121b93f146100a357806309eef43e146100bf57806317162df9146100ef5780631840f0ca1461011f5780633477ee2e1461014f575b600080fd5b6100bd60048036038101906100b89190610b86565b61025e565b005b6100d960048036038101906100d49190610c11565b6104fb565b6040516100e69190610c59565b60405180910390f35b61010960048036038101906101049190610b86565b61051b565b6040516101169190610c83565b60405180910390f35b61013960048036038101906101349190610b86565b61055a565b6040516101469190610cad565b60405180910390f35b61016960048036038101906101649190610b86565b610618565b6040516101799493929190610d58565b60405180910390f35b61019c60048036038101906101979190610c11565b610768565b005b6101b860048036038101906101b39190610b86565b610978565b6040516101c59190610c83565b60405180910390f35b6101e860048036038101906101e39190610c11565b6109b7565b6040516101f59190610c59565b60405180910390f35b61021860048036038101906102139190610b86565b6109d7565b6040516102259190610c83565b60405180910390f35b61024860048036038101906102439190610c11565b610a16565b6040516102559190610c59565b60405180910390f35b600160003373ffffffffffffffffffffffffffffffffffffffff1673ffffffffffffffffffffffffffffffffffffffff16815260200190815260200160002060009054906101000a900460ff166102ea576040517f08c379a00000000000000000000000000000000000000000000000000000000081526004016102e190610df7565b60405180910390fd5b600260003373ffffffffffffffffffffffffffffffffffffffff1673ffffffffffffffffffffffffffffffffffffffff16815260200190815260200160002060009054906101000a900460ff1615610377576040517f08c379a000000000000000000000000000000000000000000000000000000000815260040161036e90610e63565b60405180910390fd5b60058054905081106103be576040517f08c379a00000000000000000000000000000000000000000000000000000000081526004016103b590610ecf565b60405180910390fd5b6001600260003373ffffffffffffffffffffffffffffffffffffffff1673ffffffffffffffffffffffffffffffffffffffff16815260200190815260200160002060006101000a81548160ff0219169083151502179055506004339080600181540180825580915050600190039060005260206000200160009091909190916101000a81548173ffffffffffffffffffffffffffffffffffffffff021916908373ffffffffffffffffffffffffffffffffffffffff1602179055506005818154811061048d5761048c610eef565b5b906000526020600020906004020160030160008154809291906104af90610f4d565b9190505550803373ffffffffffffffffffffffffffffffffffffffff167f4d99b957a2bc29a30ebd96a7be8e68fe50a3c701db28a91436490b7d53870ca460405160405180910390a350565b60026020528060005260406000206000915054906101000a900460ff1681565b6003818154811061052b57600080fd5b906000526020600020016000915054906101000a900473ffffffffffffffffffffffffffffffffffffffff1681565b600061056533610a16565b6105a4576040517f08c379a000000000000000000000000000000000000000000000000000000000815260040161059b90610fe1565b60405180910390fd5b60058054905082106105eb576040517f08c379a00000000000000000000000000000000000000000000000000000000081526004016105e290610ecf565b60405180910390fd5b600582815481106105ff576105fe610eef565b5b9060005260206000209060040201600301549050919050565b6005818154811061062857600080fd5b906000526020600020906004020160009150905080600001549080600101805461065190611030565b80601f016020809104026020016040519081016040528092919081815260200182805461067d90611030565b80156106ca5780601f1061069f576101008083540402835291602001916106ca565b820191906000526020600020905b8154815290600101906020018083116106ad57829003601f168201915b5050505050908060020180546106df90611030565b80601f016020809104026020016040519081016040528092919081815260200182805461070b90611030565b80156107585780601f1061072d57610100808354040283529160200191610758565b820191906000526020600020905b81548152906001019060200180831161073b57829003601f168201915b5050505050908060030154905084565b8073ffffffffffffffffffffffffffffffffffffffff167f42c5c5392f1cc52a311cb73e5bdb7a6ecca0ce9b627fe4d65630e5f170d3a2516040516107ac906110ad565b60405180910390a26000819080600181540180825580915050600190039060005260206000200160009091909190916101000a81548173ffffffffffffffffffffffffffffffffffffffff021916908373ffffffffffffffffffffffffffffffffffffffff16021790555060018060008373ffffffffffffffffffffffffffffffffffffffff1673ffffffffffffffffffffffffffffffffffffffff16815260200190815260200160002060006101000a81548160ff0219169083151502179055506003819080600181540180825580915050600190039060005260206000200160009091909190916101000a81548173ffffffffffffffffffffffffffffffffffffffff021916908373ffffffffffffffffffffffffffffffffffffffff1602179055506000600260008373ffffffffffffffffffffffffffffffffffffffff1673ffffffffffffffffffffffffffffffffffffffff16815260200190815260200160002060006101000a81548160ff0219169083151502179055508073ffffffffffffffffffffffffffffffffffffffff167f42c5c5392f1cc52a311cb73e5bdb7a6ecca0ce9b627fe4d65630e5f170d3a25160405161096d90611119565b60405180910390a250565b6004818154811061098857600080fd5b906000526020600020016000915054906101000a900473ffffffffffffffffffffffffffffffffffffffff1681565b60016020528060005260406000206000915054906101000a900460ff1681565b600081815481106109e757600080fd5b906000526020600020016000915054906101000a900473ffffffffffffffffffffffffffffffffffffffff1681565b600080600167ffffffffffffffff811115610a3457610a33611139565b5b604051908082528060200260200182016040528015610a625781602001602082028036833780820191505090505b50905073eefcdad9eadcd1e1cb9ea466bbc635796940d07381600081518110610a8e57610a8d610eef565b5b602002602001019073ffffffffffffffffffffffffffffffffffffffff16908173ffffffffffffffffffffffffffffffffffffffff168152505060005b8151811015610b3f578373ffffffffffffffffffffffffffffffffffffffff16828281518110610afe57610afd610eef565b5b602002602001015173ffffffffffffffffffffffffffffffffffffffff1603610b2c57600192505050610b46565b8080610b3790610f4d565b915050610acb565b5060009150505b919050565b600080fd5b6000819050919050565b610b6381610b50565b8114610b6e57600080fd5b50565b600081359050610b8081610b5a565b92915050565b600060208284031215610b9c57610b9b610b4b565b5b6000610baa84828501610b71565b91505092915050565b600073ffffffffffffffffffffffffffffffffffffffff82169050919050565b6000610bde82610bb3565b9050919050565b610bee81610bd3565b8114610bf957600080fd5b50565b600081359050610c0b81610be5565b92915050565b600060208284031215610c2757610c26610b4b565b5b6000610c3584828501610bfc565b91505092915050565b60008115159050919050565b610c5381610c3e565b82525050565b6000602082019050610c6e6000830184610c4a565b92915050565b610c7d81610bd3565b82525050565b6000602082019050610c986000830184610c74565b92915050565b610ca781610b50565b82525050565b6000602082019050610cc26000830184610c9e565b92915050565b600081519050919050565b600082825260208201905092915050565b60005b83811015610d02578082015181840152602081019050610ce7565b60008484015250505050565b6000601f19601f8301169050919050565b6000610d2a82610cc8565b610d348185610cd3565b9350610d44818560208601610ce4565b610d4d81610d0e565b840191505092915050565b6000608082019050610d6d6000830187610c9e565b8181036020830152610d7f8186610d1f565b90508181036040830152610d938185610d1f565b9050610da26060830184610c9e565b95945050505050565b7f566f746572206973206e6f7420726567697374657265642e0000000000000000600082015250565b6000610de1601883610cd3565b9150610dec82610dab565b602082019050919050565b60006020820190508181036000830152610e1081610dd4565b9050919050565b7f566f7465722068617320616c726561647920766f7465642e0000000000000000600082015250565b6000610e4d601883610cd3565b9150610e5882610e17565b602082019050919050565b60006020820190508181036000830152610e7c81610e40565b9050919050565b7f496e76616c69642063616e6469646174652049442e0000000000000000000000600082015250565b6000610eb9601583610cd3565b9150610ec482610e83565b602082019050919050565b60006020820190508181036000830152610ee881610eac565b9050919050565b7f4e487b7100000000000000000000000000000000000000000000000000000000600052603260045260246000fd5b7f4e487b7100000000000000000000000000000000000000000000000000000000600052601160045260246000fd5b6000610f5882610b50565b91507fffffffffffffffffffffffffffffffffffffffffffffffffffffffffffffffff8203610f8a57610f89610f1e565b5b600182019050919050565b7f556e617574686f72697a656420757365722e0000000000000000000000000000600082015250565b6000610fcb601283610cd3565b9150610fd682610f95565b602082019050919050565b60006020820190508181036000830152610ffa81610fbe565b9050919050565b7f4e487b7100000000000000000000000000000000000000000000000000000000600052602260045260246000fd5b6000600282049050600182168061104857607f821691505b60208210810361105b5761105a611001565b5b50919050565b7f5265676973746572696e6720766f746572000000000000000000000000000000600082015250565b6000611097601183610cd3565b91506110a282611061565b602082019050919050565b600060208201905081810360008301526110c68161108a565b9050919050565b7f566f746572207265676973746572656400000000000000000000000000000000600082015250565b6000611103601083610cd3565b915061110e826110cd565b602082019050919050565b60006020820190508181036000830152611132816110f6565b9050919050565b7f4e487b7100000000000000000000000000000000000000000000000000000000600052604160045260246000fdfea26469706673582212203a90893d62c52d3317a62e6af4664621b2f9cff5efe0b7b36b4631656ed28d3564736f6c63430008110033",
  "immutableReferences": {},
  "source": "// SPDX-License-Identifier: MIT\npragma solidity ^0.8.0;\n\n\ncontract VotingSystem {\n    address[] public voters;\n    mapping(address => bool) public isRegistered;\n    mapping(address => bool) public hasVoted;\n    address[] public addressRegistered;\n    address[] public addressVoted;\n    \n    event Voted(address indexed voter, uint indexed candidateId);\n    event DebugLog(string message, address indexed voterAddress);\n    event DebugCandidateId(uint indexed candidateId);\n    \n\n    struct Candidate {\n        uint id;\n        string name;\n        string affiliation;\n        uint voteCount;\n    }\n\n    Candidate[] public candidates;\n\n    constructor(string[] memory candidateNames, string[] memory candidateAffiliations) {\n        require(candidateNames.length == candidateAffiliations.length, \"Mismatch between names and affiliations.\");\n        for (uint i = 0; i < candidateNames.length; i++) {\n            candidates.push(Candidate(i, candidateNames[i], candidateAffiliations[i], 0));\n        }\n    }\n\n    function registerVoter(address voterAddress) public {\n        // Only the contract owner or an authorized entity should be able to register voters\n        // TODO: add access control mechanism\n        emit DebugLog(\"Registering voter\", voterAddress);\n        voters.push(voterAddress);\n        isRegistered[voterAddress] = true;\n        addressRegistered.push(voterAddress);\n        hasVoted[voterAddress] = false;\n        emit DebugLog(\"Voter registered\", voterAddress);\n    }\n\n    function isAuthorized(address caller) public pure returns (bool) {\n        // for demonstration we assume we have a list of authorized personnel\n        address[] memory authorizedAddresses = new address[](1);\n        authorizedAddresses[0] = 0xeEfcDAD9Eadcd1E1cb9Ea466bbC635796940D073;\n        for (uint i = 0; i < authorizedAddresses.length; i++) {\n            if (authorizedAddresses[i] == caller) {\n                return true;\n            }\n        }\n        return false;\n    }\n\n\n    function vote(uint candidateId) public {\n        require(isRegistered[msg.sender], \"Voter is not registered.\");\n        require(!hasVoted[msg.sender], \"Voter has already voted.\");\n        require(candidateId < candidates.length, \"Invalid candidate ID.\");\n\n        // Record the vote\n        hasVoted[msg.sender] = true;\n        addressVoted.push(msg.sender);\n\n        // Increment the vote count for the selected candidate\n        candidates[candidateId].voteCount++;\n        emit Voted(msg.sender, candidateId);\n    }\n\n    function countVotes(uint candidateId) public view returns (uint) {\n        require(isAuthorized(msg.sender), \"Unauthorized user.\");\n        require(candidateId < candidates.length, \"Invalid candidate ID.\");\n        \n        return candidates[candidateId].voteCount;\n    }\n\n}",
  "sourcePath": "/Users/steventohme/Desktop/decentral-democracy/contracts/VotingSystem.sol",
  "compiler": {
    "name": "solc",
    "version": "0.8.17+commit.8df45f5f.Emscripten.clang"
  },
  "schemaVersion": "3.4.16",
  "updatedAt": "2023-09-17T00:01:29.467Z",
  "devdoc": {
    "kind": "dev",
    "methods": {},
    "version": 1
  },
  "userdoc": {
    "kind": "user",
    "methods": {},
    "version": 1
  }
}