{
  "contractName": "VotingSystem",
  "abi": [
    {
      "inputs": [
        {
          "internalType": "string[]",
          "name": "candidateNames",
          "type": "string[]"
        },
        {
          "internalType": "string[]",
          "name": "candidateAffiliations",
          "type": "string[]"
        }
      ],
      "stateMutability": "nonpayable",
      "type": "constructor"
    },
    {
      "anonymous": false,
      "inputs": [
        {
          "indexed": true,
          "internalType": "uint256",
          "name": "candidateId",
          "type": "uint256"
        }
      ],
      "name": "DebugCandidateId",
      "type": "event"
    },
    {
      "anonymous": false,
      "inputs": [
        {
          "indexed": true,
          "internalType": "address",
          "name": "voter",
          "type": "address"
        },
        {
          "indexed": true,
          "internalType": "uint256",
          "name": "candidateId",
          "type": "uint256"
        }
      ],
      "name": "Voted",
      "type": "event"
    },
    {
      "anonymous": false,
      "inputs": [
        {
          "indexed": true,
          "internalType": "address",
          "name": "voterAddress",
          "type": "address"
        },
        {
          "indexed": false,
          "internalType": "string",
          "name": "name",
          "type": "string"
        },
        {
          "indexed": false,
          "internalType": "string",
          "name": "surname",
          "type": "string"
        },
        {
          "indexed": false,
          "internalType": "string",
          "name": "dob",
          "type": "string"
        }
      ],
      "name": "VoterRegistered",
      "type": "event"
    },
    {
      "inputs": [
        {
          "internalType": "uint256",
          "name": "",
          "type": "uint256"
        }
      ],
      "name": "candidates",
      "outputs": [
        {
          "internalType": "uint256",
          "name": "id",
          "type": "uint256"
        },
        {
          "internalType": "string",
          "name": "name",
          "type": "string"
        },
        {
          "internalType": "string",
          "name": "affiliation",
          "type": "string"
        },
        {
          "internalType": "uint256",
          "name": "voteCount",
          "type": "uint256"
        }
      ],
      "stateMutability": "view",
      "type": "function",
      "constant": true
    },
    {
      "inputs": [
        {
          "internalType": "address",
          "name": "",
          "type": "address"
        }
      ],
      "name": "hasVoted",
      "outputs": [
        {
          "internalType": "bool",
          "name": "",
          "type": "bool"
        }
      ],
      "stateMutability": "view",
      "type": "function",
      "constant": true
    },
    {
      "inputs": [
        {
          "internalType": "string",
          "name": "",
          "type": "string"
        },
        {
          "internalType": "string",
          "name": "",
          "type": "string"
        },
        {
          "internalType": "string",
          "name": "",
          "type": "string"
        }
      ],
      "name": "isRegistered",
      "outputs": [
        {
          "internalType": "bool",
          "name": "",
          "type": "bool"
        }
      ],
      "stateMutability": "view",
      "type": "function",
      "constant": true
    },
    {
      "inputs": [
        {
          "internalType": "uint256",
          "name": "",
          "type": "uint256"
        }
      ],
      "name": "registeredAddresses",
      "outputs": [
        {
          "internalType": "address",
          "name": "",
          "type": "address"
        }
      ],
      "stateMutability": "view",
      "type": "function",
      "constant": true
    },
    {
      "inputs": [
        {
          "internalType": "address",
          "name": "",
          "type": "address"
        }
      ],
      "name": "voterInfo",
      "outputs": [
        {
          "internalType": "string",
          "name": "voterName",
          "type": "string"
        },
        {
          "internalType": "string",
          "name": "voterSurname",
          "type": "string"
        },
        {
          "internalType": "string",
          "name": "voterDOB",
          "type": "string"
        }
      ],
      "stateMutability": "view",
      "type": "function",
      "constant": true
    },
    {
      "inputs": [
        {
          "internalType": "string",
          "name": "name",
          "type": "string"
        },
        {
          "internalType": "string",
          "name": "surname",
          "type": "string"
        },
        {
          "internalType": "string",
          "name": "dob",
          "type": "string"
        }
      ],
      "name": "registerVoter",
      "outputs": [],
      "stateMutability": "nonpayable",
      "type": "function"
    },
    {
      "inputs": [],
      "name": "getRegisteredVotersCount",
      "outputs": [
        {
          "internalType": "uint256",
          "name": "",
          "type": "uint256"
        }
      ],
      "stateMutability": "view",
      "type": "function",
      "constant": true
    },
    {
      "inputs": [
        {
          "internalType": "address",
          "name": "caller",
          "type": "address"
        }
      ],
      "name": "isAuthorized",
      "outputs": [
        {
          "internalType": "bool",
          "name": "",
          "type": "bool"
        }
      ],
      "stateMutability": "pure",
      "type": "function",
      "constant": true
    },
    {
      "inputs": [
        {
          "internalType": "uint256",
          "name": "candidateId",
          "type": "uint256"
        }
      ],
      "name": "countVotes",
      "outputs": [
        {
          "internalType": "uint256",
          "name": "",
          "type": "uint256"
        }
      ],
      "stateMutability": "view",
      "type": "function",
      "constant": true
    }
  ],
  "bytecode": "0x60806040523480156200001157600080fd5b5060405162001de938038062001de9833981810160405281019062000037919062000406565b80518251146200007e576040517f08c379a0000000000000000000000000000000000000000000000000000000008152600401620000759062000512565b60405180910390fd5b60005b82518110156200016e5760046040518060800160405280838152602001858481518110620000b457620000b362000534565b5b60200260200101518152602001848481518110620000d757620000d662000534565b5b6020026020010151815260200160008152509080600181540180825580915050600190039060005260206000209060040201600090919091909150600082015181600001556020820151816001019081620001339190620007ae565b5060408201518160020190816200014b9190620007ae565b5060608201518160030155505080806200016590620008c4565b91505062000081565b50505062000911565b6000604051905090565b600080fd5b600080fd5b600080fd5b6000601f19601f8301169050919050565b7f4e487b7100000000000000000000000000000000000000000000000000000000600052604160045260246000fd5b620001db8262000190565b810181811067ffffffffffffffff82111715620001fd57620001fc620001a1565b5b80604052505050565b60006200021262000177565b9050620002208282620001d0565b919050565b600067ffffffffffffffff821115620002435762000242620001a1565b5b602082029050602081019050919050565b600080fd5b600080fd5b600067ffffffffffffffff8211156200027c576200027b620001a1565b5b620002878262000190565b9050602081019050919050565b60005b83811015620002b457808201518184015260208101905062000297565b60008484015250505050565b6000620002d7620002d1846200025e565b62000206565b905082815260208101848484011115620002f657620002f562000259565b5b6200030384828562000294565b509392505050565b600082601f8301126200032357620003226200018b565b5b815162000335848260208601620002c0565b91505092915050565b6000620003556200034f8462000225565b62000206565b905080838252602082019050602084028301858111156200037b576200037a62000254565b5b835b81811015620003c957805167ffffffffffffffff811115620003a457620003a36200018b565b5b808601620003b389826200030b565b855260208501945050506020810190506200037d565b5050509392505050565b600082601f830112620003eb57620003ea6200018b565b5b8151620003fd8482602086016200033e565b91505092915050565b6000806040838503121562000420576200041f62000181565b5b600083015167ffffffffffffffff81111562000441576200044062000186565b5b6200044f85828601620003d3565b925050602083015167ffffffffffffffff81111562000473576200047262000186565b5b6200048185828601620003d3565b9150509250929050565b600082825260208201905092915050565b7f4d69736d61746368206265747765656e206e616d657320616e6420616666696c60008201527f696174696f6e732e000000000000000000000000000000000000000000000000602082015250565b6000620004fa6028836200048b565b915062000507826200049c565b604082019050919050565b600060208201905081810360008301526200052d81620004eb565b9050919050565b7f4e487b7100000000000000000000000000000000000000000000000000000000600052603260045260246000fd5b600081519050919050565b7f4e487b7100000000000000000000000000000000000000000000000000000000600052602260045260246000fd5b60006002820490506001821680620005b657607f821691505b602082108103620005cc57620005cb6200056e565b5b50919050565b60008190508160005260206000209050919050565b60006020601f8301049050919050565b600082821b905092915050565b600060088302620006367fffffffffffffffffffffffffffffffffffffffffffffffffffffffffffffffff82620005f7565b620006428683620005f7565b95508019841693508086168417925050509392505050565b6000819050919050565b6000819050919050565b60006200068f6200068962000683846200065a565b62000664565b6200065a565b9050919050565b6000819050919050565b620006ab836200066e565b620006c3620006ba8262000696565b84845462000604565b825550505050565b600090565b620006da620006cb565b620006e7818484620006a0565b505050565b5b818110156200070f5762000703600082620006d0565b600181019050620006ed565b5050565b601f8211156200075e576200072881620005d2565b6200073384620005e7565b8101602085101562000743578190505b6200075b6200075285620005e7565b830182620006ec565b50505b505050565b600082821c905092915050565b6000620007836000198460080262000763565b1980831691505092915050565b60006200079e838362000770565b9150826002028217905092915050565b620007b98262000563565b67ffffffffffffffff811115620007d557620007d4620001a1565b5b620007e182546200059d565b620007ee82828562000713565b600060209050601f83116001811462000826576000841562000811578287015190505b6200081d858262000790565b8655506200088d565b601f1984166200083686620005d2565b60005b82811015620008605784890151825560018201915060208501945060208101905062000839565b868310156200088057848901516200087c601f89168262000770565b8355505b6001600288020188555050505b505050505050565b7f4e487b7100000000000000000000000000000000000000000000000000000000600052601160045260246000fd5b6000620008d1826200065a565b91507fffffffffffffffffffffffffffffffffffffffffffffffffffffffffffffffff820362000906576200090562000895565b5b600182019050919050565b6114c880620009216000396000f3fe608060405234801561001057600080fd5b50600436106100935760003560e01c80636e9b8555116100665780636e9b8555146101475780637e0873e314610177578063a91081a1146101a7578063cdf58d35146101c5578063fe9fbb80146101f757610093565b8063074395091461009857806309eef43e146100b45780631840f0ca146100e45780633477ee2e14610114575b600080fd5b6100b260048036038101906100ad9190610c3a565b610227565b005b6100ce60048036038101906100c99190610d3f565b6104f1565b6040516100db9190610d87565b60405180910390f35b6100fe60048036038101906100f99190610dd8565b610511565b60405161010b9190610e14565b60405180910390f35b61012e60048036038101906101299190610dd8565b6105cf565b60405161013e9493929190610eae565b60405180910390f35b610161600480360381019061015c9190610dd8565b61071f565b60405161016e9190610f10565b60405180910390f35b610191600480360381019061018c9190610c3a565b61075e565b60405161019e9190610d87565b60405180910390f35b6101af6107dc565b6040516101bc9190610e14565b60405180910390f35b6101df60048036038101906101da9190610d3f565b6107e9565b6040516101ee93929190610f2b565b60405180910390f35b610211600480360381019061020c9190610d3f565b6109ab565b60405161021e9190610d87565b60405180910390f35b6000836040516102379190610fb3565b9081526020016040518091039020826040516102539190610fb3565b90815260200160405180910390208160405161026f9190610fb3565b908152602001604051809103902060009054906101000a900460ff16156102cb576040517f08c379a00000000000000000000000000000000000000000000000000000000081526004016102c290611016565b60405180910390fd5b600033905060016000856040516102e29190610fb3565b9081526020016040518091039020846040516102fe9190610fb3565b90815260200160405180910390208360405161031a9190610fb3565b908152602001604051809103902060006101000a81548160ff0219169083151502179055506002819080600181540180825580915050600190039060005260206000200160009091909190916101000a81548173ffffffffffffffffffffffffffffffffffffffff021916908373ffffffffffffffffffffffffffffffffffffffff160217905550604051806060016040528085815260200184815260200183815250600360008373ffffffffffffffffffffffffffffffffffffffff1673ffffffffffffffffffffffffffffffffffffffff16815260200190815260200160002060008201518160000190816104119190611242565b5060208201518160010190816104279190611242565b50604082015181600201908161043d9190611242565b509050506000600160008373ffffffffffffffffffffffffffffffffffffffff1673ffffffffffffffffffffffffffffffffffffffff16815260200190815260200160002060006101000a81548160ff0219169083151502179055508073ffffffffffffffffffffffffffffffffffffffff167ff905e12dedf8b52b886d4f6fa367677b7b02bd1dedeb4d3867a63e345ac7f8f08585856040516104e393929190610f2b565b60405180910390a250505050565b60016020528060005260406000206000915054906101000a900460ff1681565b600061051c336109ab565b61055b576040517f08c379a000000000000000000000000000000000000000000000000000000000815260040161055290611360565b60405180910390fd5b60048054905082106105a2576040517f08c379a0000000000000000000000000000000000000000000000000000000008152600401610599906113cc565b60405180910390fd5b600482815481106105b6576105b56113ec565b5b9060005260206000209060040201600301549050919050565b600481815481106105df57600080fd5b906000526020600020906004020160009150905080600001549080600101805461060890611065565b80601f016020809104026020016040519081016040528092919081815260200182805461063490611065565b80156106815780601f1061065657610100808354040283529160200191610681565b820191906000526020600020905b81548152906001019060200180831161066457829003601f168201915b50505050509080600201805461069690611065565b80601f01602080910402602001604051908101604052809291908181526020018280546106c290611065565b801561070f5780601f106106e45761010080835404028352916020019161070f565b820191906000526020600020905b8154815290600101906020018083116106f257829003601f168201915b5050505050908060030154905084565b6002818154811061072f57600080fd5b906000526020600020016000915054906101000a900473ffffffffffffffffffffffffffffffffffffffff1681565b6000838051602081018201805184825260208301602085012081835280955050505050508280516020810182018051848252602083016020850120818352809550505050505081805160208101820180518482526020830160208501208183528095505050505050600092509250509054906101000a900460ff1681565b6000600280549050905090565b600360205280600052604060002060009150905080600001805461080c90611065565b80601f016020809104026020016040519081016040528092919081815260200182805461083890611065565b80156108855780601f1061085a57610100808354040283529160200191610885565b820191906000526020600020905b81548152906001019060200180831161086857829003601f168201915b50505050509080600101805461089a90611065565b80601f01602080910402602001604051908101604052809291908181526020018280546108c690611065565b80156109135780601f106108e857610100808354040283529160200191610913565b820191906000526020600020905b8154815290600101906020018083116108f657829003601f168201915b50505050509080600201805461092890611065565b80601f016020809104026020016040519081016040528092919081815260200182805461095490611065565b80156109a15780601f10610976576101008083540402835291602001916109a1565b820191906000526020600020905b81548152906001019060200180831161098457829003601f168201915b5050505050905083565b600080600167ffffffffffffffff8111156109c9576109c8610b0f565b5b6040519080825280602002602001820160405280156109f75781602001602082028036833780820191505090505b50905073eefcdad9eadcd1e1cb9ea466bbc635796940d07381600081518110610a2357610a226113ec565b5b602002602001019073ffffffffffffffffffffffffffffffffffffffff16908173ffffffffffffffffffffffffffffffffffffffff168152505060005b8151811015610ad4578373ffffffffffffffffffffffffffffffffffffffff16828281518110610a9357610a926113ec565b5b602002602001015173ffffffffffffffffffffffffffffffffffffffff1603610ac157600192505050610adb565b8080610acc9061144a565b915050610a60565b5060009150505b919050565b6000604051905090565b600080fd5b600080fd5b600080fd5b600080fd5b6000601f19601f8301169050919050565b7f4e487b7100000000000000000000000000000000000000000000000000000000600052604160045260246000fd5b610b4782610afe565b810181811067ffffffffffffffff82111715610b6657610b65610b0f565b5b80604052505050565b6000610b79610ae0565b9050610b858282610b3e565b919050565b600067ffffffffffffffff821115610ba557610ba4610b0f565b5b610bae82610afe565b9050602081019050919050565b82818337600083830152505050565b6000610bdd610bd884610b8a565b610b6f565b905082815260208101848484011115610bf957610bf8610af9565b5b610c04848285610bbb565b509392505050565b600082601f830112610c2157610c20610af4565b5b8135610c31848260208601610bca565b91505092915050565b600080600060608486031215610c5357610c52610aea565b5b600084013567ffffffffffffffff811115610c7157610c70610aef565b5b610c7d86828701610c0c565b935050602084013567ffffffffffffffff811115610c9e57610c9d610aef565b5b610caa86828701610c0c565b925050604084013567ffffffffffffffff811115610ccb57610cca610aef565b5b610cd786828701610c0c565b9150509250925092565b600073ffffffffffffffffffffffffffffffffffffffff82169050919050565b6000610d0c82610ce1565b9050919050565b610d1c81610d01565b8114610d2757600080fd5b50565b600081359050610d3981610d13565b92915050565b600060208284031215610d5557610d54610aea565b5b6000610d6384828501610d2a565b91505092915050565b60008115159050919050565b610d8181610d6c565b82525050565b6000602082019050610d9c6000830184610d78565b92915050565b6000819050919050565b610db581610da2565b8114610dc057600080fd5b50565b600081359050610dd281610dac565b92915050565b600060208284031215610dee57610ded610aea565b5b6000610dfc84828501610dc3565b91505092915050565b610e0e81610da2565b82525050565b6000602082019050610e296000830184610e05565b92915050565b600081519050919050565b600082825260208201905092915050565b60005b83811015610e69578082015181840152602081019050610e4e565b60008484015250505050565b6000610e8082610e2f565b610e8a8185610e3a565b9350610e9a818560208601610e4b565b610ea381610afe565b840191505092915050565b6000608082019050610ec36000830187610e05565b8181036020830152610ed58186610e75565b90508181036040830152610ee98185610e75565b9050610ef86060830184610e05565b95945050505050565b610f0a81610d01565b82525050565b6000602082019050610f256000830184610f01565b92915050565b60006060820190508181036000830152610f458186610e75565b90508181036020830152610f598185610e75565b90508181036040830152610f6d8184610e75565b9050949350505050565b600081905092915050565b6000610f8d82610e2f565b610f978185610f77565b9350610fa7818560208601610e4b565b80840191505092915050565b6000610fbf8284610f82565b915081905092915050565b7f566f74657220697320616c726561647920726567697374657265642e00000000600082015250565b6000611000601c83610e3a565b915061100b82610fca565b602082019050919050565b6000602082019050818103600083015261102f81610ff3565b9050919050565b7f4e487b7100000000000000000000000000000000000000000000000000000000600052602260045260246000fd5b6000600282049050600182168061107d57607f821691505b6020821081036110905761108f611036565b5b50919050565b60008190508160005260206000209050919050565b60006020601f8301049050919050565b600082821b905092915050565b6000600883026110f87fffffffffffffffffffffffffffffffffffffffffffffffffffffffffffffffff826110bb565b61110286836110bb565b95508019841693508086168417925050509392505050565b6000819050919050565b600061113f61113a61113584610da2565b61111a565b610da2565b9050919050565b6000819050919050565b61115983611124565b61116d61116582611146565b8484546110c8565b825550505050565b600090565b611182611175565b61118d818484611150565b505050565b5b818110156111b1576111a660008261117a565b600181019050611193565b5050565b601f8211156111f6576111c781611096565b6111d0846110ab565b810160208510156111df578190505b6111f36111eb856110ab565b830182611192565b50505b505050565b600082821c905092915050565b6000611219600019846008026111fb565b1980831691505092915050565b60006112328383611208565b9150826002028217905092915050565b61124b82610e2f565b67ffffffffffffffff81111561126457611263610b0f565b5b61126e8254611065565b6112798282856111b5565b600060209050601f8311600181146112ac576000841561129a578287015190505b6112a48582611226565b86555061130c565b601f1984166112ba86611096565b60005b828110156112e2578489015182556001820191506020850194506020810190506112bd565b868310156112ff57848901516112fb601f891682611208565b8355505b6001600288020188555050505b505050505050565b7f556e617574686f72697a656420757365722e0000000000000000000000000000600082015250565b600061134a601283610e3a565b915061135582611314565b602082019050919050565b600060208201905081810360008301526113798161133d565b9050919050565b7f496e76616c69642063616e6469646174652049442e0000000000000000000000600082015250565b60006113b6601583610e3a565b91506113c182611380565b602082019050919050565b600060208201905081810360008301526113e5816113a9565b9050919050565b7f4e487b7100000000000000000000000000000000000000000000000000000000600052603260045260246000fd5b7f4e487b7100000000000000000000000000000000000000000000000000000000600052601160045260246000fd5b600061145582610da2565b91507fffffffffffffffffffffffffffffffffffffffffffffffffffffffffffffffff82036114875761148661141b565b5b60018201905091905056fea2646970667358221220e4249b1a1dfae9992038229896c7522f9aeb3bb311944c3a799a414f0552097c64736f6c63430008110033",
  "immutableReferences": {},
  "source": "// SPDX-License-Identifier: MIT\npragma solidity ^0.8.0;\n\n\ncontract VotingSystem {\n\n    mapping(string => mapping(string => mapping(string => bool))) public isRegistered;\n    mapping(address => bool) public hasVoted;\n    address[] public registeredAddresses;\n    mapping(address => VoterInfo) public voterInfo;\n    \n    event Voted(address indexed voter, uint indexed candidateId);\n    event VoterRegistered(address indexed voterAddress, string name, string surname, string dob);\n    event DebugCandidateId(uint indexed candidateId);\n    \n    struct VoterInfo {\n        string voterName;\n        string voterSurname;\n        string voterDOB;\n    }\n\n    struct Candidate {\n        uint id;\n        string name;\n        string affiliation;\n        uint voteCount;\n    }\n\n    Candidate[] public candidates;\n\n    constructor(string[] memory candidateNames, string[] memory candidateAffiliations) {\n        require(candidateNames.length == candidateAffiliations.length, \"Mismatch between names and affiliations.\");\n        for (uint i = 0; i < candidateNames.length; i++) {\n            candidates.push(Candidate(i, candidateNames[i], candidateAffiliations[i], 0));\n        }\n    }\n\n    function registerVoter(string memory name, string memory surname, string memory dob) public {\n        require(!isRegistered[name][surname][dob], \"Voter is already registered.\");\n\n        address voterAddress = msg.sender;\n        isRegistered[name][surname][dob] = true;\n        registeredAddresses.push(voterAddress);\n        voterInfo[voterAddress] = VoterInfo(name, surname, dob);\n        hasVoted[voterAddress] = false;\n        emit VoterRegistered(voterAddress, name, surname, dob);\n    }\n\n    function getRegisteredVotersCount() public view returns (uint) {\n        return registeredAddresses.length;\n    }\n\n    function isAuthorized(address caller) public pure returns (bool) {\n        // for demonstration we assume we have a list of authorized personnel\n        address[] memory authorizedAddresses = new address[](1);\n        authorizedAddresses[0] = 0xeEfcDAD9Eadcd1E1cb9Ea466bbC635796940D073;\n        for (uint i = 0; i < authorizedAddresses.length; i++) {\n            if (authorizedAddresses[i] == caller) {\n                return true;\n            }\n        }\n        return false;\n    }\n\n\n    // function vote(uint candidateId) public {\n    //     require(isRegistered[msg.sender], \"Voter is not registered.\");\n    //     require(!hasVoted[msg.sender], \"Voter has already voted.\");\n    //     require(candidateId < candidates.length, \"Invalid candidate ID.\");\n\n    //     hasVoted[msg.sender] = true;\n    //     addressVoted.push(msg.sender);\n\n    //     candidates[candidateId].voteCount++;\n    //     emit Voted(msg.sender, candidateId);\n    // }\n\n    function countVotes(uint candidateId) public view returns (uint) {\n        require(isAuthorized(msg.sender), \"Unauthorized user.\");\n        require(candidateId < candidates.length, \"Invalid candidate ID.\");\n        \n        return candidates[candidateId].voteCount;\n    }\n}",
  "sourcePath": "/Users/steventohme/Desktop/decentral-democracy/contracts/VotingSystem.sol",
  "compiler": {
    "name": "solc",
    "version": "0.8.17+commit.8df45f5f.Emscripten.clang"
  },
  "schemaVersion": "3.4.16",
  "updatedAt": "2023-09-17T05:58:34.812Z",
  "networkType": "ethereum",
  "devdoc": {
    "kind": "dev",
    "methods": {},
    "version": 1
  },
  "userdoc": {
    "kind": "user",
    "methods": {},
    "version": 1
  }
}