{
  "contractName": "VotingSystem",
  "abi": [
    {
      "inputs": [
        {
          "internalType": "string[]",
          "name": "candidateNames",
          "type": "string[]"
        },
        {
          "internalType": "string[]",
          "name": "candidateAffiliations",
          "type": "string[]"
        }
      ],
      "stateMutability": "nonpayable",
      "type": "constructor"
    },
    {
      "anonymous": false,
      "inputs": [
        {
          "indexed": true,
          "internalType": "uint256",
          "name": "candidateId",
          "type": "uint256"
        }
      ],
      "name": "DebugCandidateId",
      "type": "event"
    },
    {
      "anonymous": false,
      "inputs": [
        {
          "indexed": true,
          "internalType": "address",
          "name": "voter",
          "type": "address"
        },
        {
          "indexed": true,
          "internalType": "uint256",
          "name": "candidateId",
          "type": "uint256"
        }
      ],
      "name": "Voted",
      "type": "event"
    },
    {
      "anonymous": false,
      "inputs": [
        {
          "indexed": true,
          "internalType": "address",
          "name": "voterAddress",
          "type": "address"
        },
        {
          "indexed": false,
          "internalType": "string",
          "name": "name",
          "type": "string"
        },
        {
          "indexed": false,
          "internalType": "string",
          "name": "surname",
          "type": "string"
        },
        {
          "indexed": false,
          "internalType": "string",
          "name": "dob",
          "type": "string"
        }
      ],
      "name": "VoterRegistered",
      "type": "event"
    },
    {
      "inputs": [
        {
          "internalType": "uint256",
          "name": "",
          "type": "uint256"
        }
      ],
      "name": "candidates",
      "outputs": [
        {
          "internalType": "uint256",
          "name": "id",
          "type": "uint256"
        },
        {
          "internalType": "string",
          "name": "name",
          "type": "string"
        },
        {
          "internalType": "string",
          "name": "affiliation",
          "type": "string"
        },
        {
          "internalType": "uint256",
          "name": "voteCount",
          "type": "uint256"
        }
      ],
      "stateMutability": "view",
      "type": "function",
      "constant": true
    },
    {
      "inputs": [
        {
          "internalType": "address",
          "name": "",
          "type": "address"
        }
      ],
      "name": "hasVoted",
      "outputs": [
        {
          "internalType": "bool",
          "name": "",
          "type": "bool"
        }
      ],
      "stateMutability": "view",
      "type": "function",
      "constant": true
    },
    {
      "inputs": [
        {
          "internalType": "string",
          "name": "",
          "type": "string"
        },
        {
          "internalType": "string",
          "name": "",
          "type": "string"
        },
        {
          "internalType": "string",
          "name": "",
          "type": "string"
        }
      ],
      "name": "isRegistered",
      "outputs": [
        {
          "internalType": "bool",
          "name": "",
          "type": "bool"
        }
      ],
      "stateMutability": "view",
      "type": "function",
      "constant": true
    },
    {
      "inputs": [
        {
          "internalType": "address",
          "name": "",
          "type": "address"
        }
      ],
      "name": "isRegisteredAddress",
      "outputs": [
        {
          "internalType": "bool",
          "name": "",
          "type": "bool"
        }
      ],
      "stateMutability": "view",
      "type": "function",
      "constant": true
    },
    {
      "inputs": [
        {
          "internalType": "uint256",
          "name": "",
          "type": "uint256"
        }
      ],
      "name": "registeredAddresses",
      "outputs": [
        {
          "internalType": "address",
          "name": "",
          "type": "address"
        }
      ],
      "stateMutability": "view",
      "type": "function",
      "constant": true
    },
    {
      "inputs": [
        {
          "internalType": "address",
          "name": "",
          "type": "address"
        }
      ],
      "name": "voterInfo",
      "outputs": [
        {
          "internalType": "string",
          "name": "voterName",
          "type": "string"
        },
        {
          "internalType": "string",
          "name": "voterSurname",
          "type": "string"
        },
        {
          "internalType": "string",
          "name": "voterDOB",
          "type": "string"
        }
      ],
      "stateMutability": "view",
      "type": "function",
      "constant": true
    },
    {
      "inputs": [
        {
          "internalType": "string",
          "name": "name",
          "type": "string"
        },
        {
          "internalType": "string",
          "name": "surname",
          "type": "string"
        },
        {
          "internalType": "string",
          "name": "dob",
          "type": "string"
        }
      ],
      "name": "registerVoter",
      "outputs": [],
      "stateMutability": "nonpayable",
      "type": "function"
    },
    {
      "inputs": [],
      "name": "getRegisteredVotersCount",
      "outputs": [
        {
          "internalType": "uint256",
          "name": "",
          "type": "uint256"
        }
      ],
      "stateMutability": "view",
      "type": "function",
      "constant": true
    },
    {
      "inputs": [
        {
          "internalType": "address",
          "name": "caller",
          "type": "address"
        }
      ],
      "name": "isAuthorized",
      "outputs": [
        {
          "internalType": "bool",
          "name": "",
          "type": "bool"
        }
      ],
      "stateMutability": "pure",
      "type": "function",
      "constant": true
    },
    {
      "inputs": [
        {
          "internalType": "string",
          "name": "voterAddressString",
          "type": "string"
        },
        {
          "internalType": "uint256",
          "name": "candidateId",
          "type": "uint256"
        },
        {
          "internalType": "string",
          "name": "signature",
          "type": "string"
        }
      ],
      "name": "vote",
      "outputs": [],
      "stateMutability": "nonpayable",
      "type": "function"
    },
    {
      "inputs": [
        {
          "internalType": "uint256",
          "name": "candidateId",
          "type": "uint256"
        }
      ],
      "name": "countVotes",
      "outputs": [
        {
          "internalType": "uint256",
          "name": "",
          "type": "uint256"
        }
      ],
      "stateMutability": "view",
      "type": "function",
      "constant": true
    }
  ],
  "bytecode": "0x60806040523480156200001157600080fd5b506040516200269038038062002690833981810160405281019062000037919062000406565b80518251146200007e576040517f08c379a0000000000000000000000000000000000000000000000000000000008152600401620000759062000512565b60405180910390fd5b60005b82518110156200016e5760056040518060800160405280838152602001858481518110620000b457620000b362000534565b5b60200260200101518152602001848481518110620000d757620000d662000534565b5b6020026020010151815260200160008152509080600181540180825580915050600190039060005260206000209060040201600090919091909150600082015181600001556020820151816001019081620001339190620007ae565b5060408201518160020190816200014b9190620007ae565b5060608201518160030155505080806200016590620008c4565b91505062000081565b50505062000911565b6000604051905090565b600080fd5b600080fd5b600080fd5b6000601f19601f8301169050919050565b7f4e487b7100000000000000000000000000000000000000000000000000000000600052604160045260246000fd5b620001db8262000190565b810181811067ffffffffffffffff82111715620001fd57620001fc620001a1565b5b80604052505050565b60006200021262000177565b9050620002208282620001d0565b919050565b600067ffffffffffffffff821115620002435762000242620001a1565b5b602082029050602081019050919050565b600080fd5b600080fd5b600067ffffffffffffffff8211156200027c576200027b620001a1565b5b620002878262000190565b9050602081019050919050565b60005b83811015620002b457808201518184015260208101905062000297565b60008484015250505050565b6000620002d7620002d1846200025e565b62000206565b905082815260208101848484011115620002f657620002f562000259565b5b6200030384828562000294565b509392505050565b600082601f8301126200032357620003226200018b565b5b815162000335848260208601620002c0565b91505092915050565b6000620003556200034f8462000225565b62000206565b905080838252602082019050602084028301858111156200037b576200037a62000254565b5b835b81811015620003c957805167ffffffffffffffff811115620003a457620003a36200018b565b5b808601620003b389826200030b565b855260208501945050506020810190506200037d565b5050509392505050565b600082601f830112620003eb57620003ea6200018b565b5b8151620003fd8482602086016200033e565b91505092915050565b6000806040838503121562000420576200041f62000181565b5b600083015167ffffffffffffffff81111562000441576200044062000186565b5b6200044f85828601620003d3565b925050602083015167ffffffffffffffff81111562000473576200047262000186565b5b6200048185828601620003d3565b9150509250929050565b600082825260208201905092915050565b7f4d69736d61746368206265747765656e206e616d657320616e6420616666696c60008201527f696174696f6e732e000000000000000000000000000000000000000000000000602082015250565b6000620004fa6028836200048b565b915062000507826200049c565b604082019050919050565b600060208201905081810360008301526200052d81620004eb565b9050919050565b7f4e487b7100000000000000000000000000000000000000000000000000000000600052603260045260246000fd5b600081519050919050565b7f4e487b7100000000000000000000000000000000000000000000000000000000600052602260045260246000fd5b60006002820490506001821680620005b657607f821691505b602082108103620005cc57620005cb6200056e565b5b50919050565b60008190508160005260206000209050919050565b60006020601f8301049050919050565b600082821b905092915050565b600060088302620006367fffffffffffffffffffffffffffffffffffffffffffffffffffffffffffffffff82620005f7565b620006428683620005f7565b95508019841693508086168417925050509392505050565b6000819050919050565b6000819050919050565b60006200068f6200068962000683846200065a565b62000664565b6200065a565b9050919050565b6000819050919050565b620006ab836200066e565b620006c3620006ba8262000696565b84845462000604565b825550505050565b600090565b620006da620006cb565b620006e7818484620006a0565b505050565b5b818110156200070f5762000703600082620006d0565b600181019050620006ed565b5050565b601f8211156200075e576200072881620005d2565b6200073384620005e7565b8101602085101562000743578190505b6200075b6200075285620005e7565b830182620006ec565b50505b505050565b600082821c905092915050565b6000620007836000198460080262000763565b1980831691505092915050565b60006200079e838362000770565b9150826002028217905092915050565b620007b98262000563565b67ffffffffffffffff811115620007d557620007d4620001a1565b5b620007e182546200059d565b620007ee82828562000713565b600060209050601f83116001811462000826576000841562000811578287015190505b6200081d858262000790565b8655506200088d565b601f1984166200083686620005d2565b60005b82811015620008605784890151825560018201915060208501945060208101905062000839565b868310156200088057848901516200087c601f89168262000770565b8355505b6001600288020188555050505b505050505050565b7f4e487b7100000000000000000000000000000000000000000000000000000000600052601160045260246000fd5b6000620008d1826200065a565b91507fffffffffffffffffffffffffffffffffffffffffffffffffffffffffffffffff820362000906576200090562000895565b5b600182019050919050565b611d6f80620009216000396000f3fe608060405234801561001057600080fd5b50600436106100a95760003560e01c80637e0873e3116100715780637e0873e31461018d578063a91081a1146101bd578063cdf58d35146101db578063d47ec9691461020d578063db0c7ca814610229578063fe9fbb8014610259576100a9565b806307439509146100ae57806309eef43e146100ca5780631840f0ca146100fa5780633477ee2e1461012a5780636e9b85551461015d575b600080fd5b6100c860048036038101906100c3919061103f565b610289565b005b6100e460048036038101906100df9190611144565b610553565b6040516100f1919061118c565b60405180910390f35b610114600480360381019061010f91906111dd565b610573565b6040516101219190611219565b60405180910390f35b610144600480360381019061013f91906111dd565b610631565b60405161015494939291906112b3565b60405180910390f35b610177600480360381019061017291906111dd565b610781565b6040516101849190611315565b60405180910390f35b6101a760048036038101906101a2919061103f565b6107c0565b6040516101b4919061118c565b60405180910390f35b6101c561083e565b6040516101d29190611219565b60405180910390f35b6101f560048036038101906101f09190611144565b61084b565b60405161020493929190611330565b60405180910390f35b6102276004803603810190610222919061137c565b610a0d565b005b610243600480360381019061023e9190611144565b610ca6565b604051610250919061118c565b60405180910390f35b610273600480360381019061026e9190611144565b610cc6565b604051610280919061118c565b60405180910390f35b6000836040516102999190611443565b9081526020016040518091039020826040516102b59190611443565b9081526020016040518091039020816040516102d19190611443565b908152602001604051809103902060009054906101000a900460ff161561032d576040517f08c379a0000000000000000000000000000000000000000000000000000000008152600401610324906114a6565b60405180910390fd5b600033905060016000856040516103449190611443565b9081526020016040518091039020846040516103609190611443565b90815260200160405180910390208360405161037c9190611443565b908152602001604051809103902060006101000a81548160ff0219169083151502179055506003819080600181540180825580915050600190039060005260206000200160009091909190916101000a81548173ffffffffffffffffffffffffffffffffffffffff021916908373ffffffffffffffffffffffffffffffffffffffff160217905550604051806060016040528085815260200184815260200183815250600460008373ffffffffffffffffffffffffffffffffffffffff1673ffffffffffffffffffffffffffffffffffffffff168152602001908152602001600020600082015181600001908161047391906116d2565b50602082015181600101908161048991906116d2565b50604082015181600201908161049f91906116d2565b509050506000600260008373ffffffffffffffffffffffffffffffffffffffff1673ffffffffffffffffffffffffffffffffffffffff16815260200190815260200160002060006101000a81548160ff0219169083151502179055508073ffffffffffffffffffffffffffffffffffffffff167ff905e12dedf8b52b886d4f6fa367677b7b02bd1dedeb4d3867a63e345ac7f8f085858560405161054593929190611330565b60405180910390a250505050565b60026020528060005260406000206000915054906101000a900460ff1681565b600061057e33610cc6565b6105bd576040517f08c379a00000000000000000000000000000000000000000000000000000000081526004016105b4906117f0565b60405180910390fd5b6005805490508210610604576040517f08c379a00000000000000000000000000000000000000000000000000000000081526004016105fb9061185c565b60405180910390fd5b600582815481106106185761061761187c565b5b9060005260206000209060040201600301549050919050565b6005818154811061064157600080fd5b906000526020600020906004020160009150905080600001549080600101805461066a906114f5565b80601f0160208091040260200160405190810160405280929190818152602001828054610696906114f5565b80156106e35780601f106106b8576101008083540402835291602001916106e3565b820191906000526020600020905b8154815290600101906020018083116106c657829003601f168201915b5050505050908060020180546106f8906114f5565b80601f0160208091040260200160405190810160405280929190818152602001828054610724906114f5565b80156107715780601f1061074657610100808354040283529160200191610771565b820191906000526020600020905b81548152906001019060200180831161075457829003601f168201915b5050505050908060030154905084565b6003818154811061079157600080fd5b906000526020600020016000915054906101000a900473ffffffffffffffffffffffffffffffffffffffff1681565b6000838051602081018201805184825260208301602085012081835280955050505050508280516020810182018051848252602083016020850120818352809550505050505081805160208101820180518482526020830160208501208183528095505050505050600092509250509054906101000a900460ff1681565b6000600380549050905090565b600460205280600052604060002060009150905080600001805461086e906114f5565b80601f016020809104026020016040519081016040528092919081815260200182805461089a906114f5565b80156108e75780601f106108bc576101008083540402835291602001916108e7565b820191906000526020600020905b8154815290600101906020018083116108ca57829003601f168201915b5050505050908060010180546108fc906114f5565b80601f0160208091040260200160405190810160405280929190818152602001828054610928906114f5565b80156109755780601f1061094a57610100808354040283529160200191610975565b820191906000526020600020905b81548152906001019060200180831161095857829003601f168201915b50505050509080600201805461098a906114f5565b80601f01602080910402602001604051908101604052809291908181526020018280546109b6906114f5565b8015610a035780601f106109d857610100808354040283529160200191610a03565b820191906000526020600020905b8154815290600101906020018083116109e657829003601f168201915b5050505050905083565b600083610a1990611907565b60601c9050600160008273ffffffffffffffffffffffffffffffffffffffff1673ffffffffffffffffffffffffffffffffffffffff16815260200190815260200160002060009054906101000a900460ff16610aaa576040517f08c379a0000000000000000000000000000000000000000000000000000000008152600401610aa1906119ba565b60405180910390fd5b600260008273ffffffffffffffffffffffffffffffffffffffff1673ffffffffffffffffffffffffffffffffffffffff16815260200190815260200160002060009054906101000a900460ff1615610b37576040517f08c379a0000000000000000000000000000000000000000000000000000000008152600401610b2e90611a26565b60405180910390fd5b6005805490508310610b7e576040517f08c379a0000000000000000000000000000000000000000000000000000000008152600401610b759061185c565b60405180910390fd5b610b888183610dfb565b610bc7576040517f08c379a0000000000000000000000000000000000000000000000000000000008152600401610bbe90611a92565b60405180910390fd5b6001600260008373ffffffffffffffffffffffffffffffffffffffff1673ffffffffffffffffffffffffffffffffffffffff16815260200190815260200160002060006101000a81548160ff021916908315150217905550600160058481548110610c3557610c3461187c565b5b90600052602060002090600402016003016000828254610c559190611ae1565b92505081905550828173ffffffffffffffffffffffffffffffffffffffff167f4d99b957a2bc29a30ebd96a7be8e68fe50a3c701db28a91436490b7d53870ca460405160405180910390a350505050565b60016020528060005260406000206000915054906101000a900460ff1681565b600080600167ffffffffffffffff811115610ce457610ce3610f14565b5b604051908082528060200260200182016040528015610d125781602001602082028036833780820191505090505b50905073eefcdad9eadcd1e1cb9ea466bbc635796940d07381600081518110610d3e57610d3d61187c565b5b602002602001019073ffffffffffffffffffffffffffffffffffffffff16908173ffffffffffffffffffffffffffffffffffffffff168152505060005b8151811015610def578373ffffffffffffffffffffffffffffffffffffffff16828281518110610dae57610dad61187c565b5b602002602001015173ffffffffffffffffffffffffffffffffffffffff1603610ddc57600192505050610df6565b8080610de790611b15565b915050610d7b565b5060009150505b919050565b60008083604051602001610e0f9190611bf1565b604051602081830303815290604052805190602001209050600083604051602001610e3a9190611443565b604051602081830303815290604052610e5290611c36565b90506000600183601b846000801b60405160008152602001604052604051610e7d9493929190611cf4565b6020604051602081039080840390855afa158015610e9f573d6000803e3d6000fd5b5050506020604051035190508573ffffffffffffffffffffffffffffffffffffffff168173ffffffffffffffffffffffffffffffffffffffff1614935050505092915050565b6000604051905090565b600080fd5b600080fd5b600080fd5b600080fd5b6000601f19601f8301169050919050565b7f4e487b7100000000000000000000000000000000000000000000000000000000600052604160045260246000fd5b610f4c82610f03565b810181811067ffffffffffffffff82111715610f6b57610f6a610f14565b5b80604052505050565b6000610f7e610ee5565b9050610f8a8282610f43565b919050565b600067ffffffffffffffff821115610faa57610fa9610f14565b5b610fb382610f03565b9050602081019050919050565b82818337600083830152505050565b6000610fe2610fdd84610f8f565b610f74565b905082815260208101848484011115610ffe57610ffd610efe565b5b611009848285610fc0565b509392505050565b600082601f83011261102657611025610ef9565b5b8135611036848260208601610fcf565b91505092915050565b60008060006060848603121561105857611057610eef565b5b600084013567ffffffffffffffff81111561107657611075610ef4565b5b61108286828701611011565b935050602084013567ffffffffffffffff8111156110a3576110a2610ef4565b5b6110af86828701611011565b925050604084013567ffffffffffffffff8111156110d0576110cf610ef4565b5b6110dc86828701611011565b9150509250925092565b600073ffffffffffffffffffffffffffffffffffffffff82169050919050565b6000611111826110e6565b9050919050565b61112181611106565b811461112c57600080fd5b50565b60008135905061113e81611118565b92915050565b60006020828403121561115a57611159610eef565b5b60006111688482850161112f565b91505092915050565b60008115159050919050565b61118681611171565b82525050565b60006020820190506111a1600083018461117d565b92915050565b6000819050919050565b6111ba816111a7565b81146111c557600080fd5b50565b6000813590506111d7816111b1565b92915050565b6000602082840312156111f3576111f2610eef565b5b6000611201848285016111c8565b91505092915050565b611213816111a7565b82525050565b600060208201905061122e600083018461120a565b92915050565b600081519050919050565b600082825260208201905092915050565b60005b8381101561126e578082015181840152602081019050611253565b60008484015250505050565b600061128582611234565b61128f818561123f565b935061129f818560208601611250565b6112a881610f03565b840191505092915050565b60006080820190506112c8600083018761120a565b81810360208301526112da818661127a565b905081810360408301526112ee818561127a565b90506112fd606083018461120a565b95945050505050565b61130f81611106565b82525050565b600060208201905061132a6000830184611306565b92915050565b6000606082019050818103600083015261134a818661127a565b9050818103602083015261135e818561127a565b90508181036040830152611372818461127a565b9050949350505050565b60008060006060848603121561139557611394610eef565b5b600084013567ffffffffffffffff8111156113b3576113b2610ef4565b5b6113bf86828701611011565b93505060206113d0868287016111c8565b925050604084013567ffffffffffffffff8111156113f1576113f0610ef4565b5b6113fd86828701611011565b9150509250925092565b600081905092915050565b600061141d82611234565b6114278185611407565b9350611437818560208601611250565b80840191505092915050565b600061144f8284611412565b915081905092915050565b7f566f74657220697320616c726561647920726567697374657265642e00000000600082015250565b6000611490601c8361123f565b915061149b8261145a565b602082019050919050565b600060208201905081810360008301526114bf81611483565b9050919050565b7f4e487b7100000000000000000000000000000000000000000000000000000000600052602260045260246000fd5b6000600282049050600182168061150d57607f821691505b6020821081036115205761151f6114c6565b5b50919050565b60008190508160005260206000209050919050565b60006020601f8301049050919050565b600082821b905092915050565b6000600883026115887fffffffffffffffffffffffffffffffffffffffffffffffffffffffffffffffff8261154b565b611592868361154b565b95508019841693508086168417925050509392505050565b6000819050919050565b60006115cf6115ca6115c5846111a7565b6115aa565b6111a7565b9050919050565b6000819050919050565b6115e9836115b4565b6115fd6115f5826115d6565b848454611558565b825550505050565b600090565b611612611605565b61161d8184846115e0565b505050565b5b818110156116415761163660008261160a565b600181019050611623565b5050565b601f8211156116865761165781611526565b6116608461153b565b8101602085101561166f578190505b61168361167b8561153b565b830182611622565b50505b505050565b600082821c905092915050565b60006116a96000198460080261168b565b1980831691505092915050565b60006116c28383611698565b9150826002028217905092915050565b6116db82611234565b67ffffffffffffffff8111156116f4576116f3610f14565b5b6116fe82546114f5565b611709828285611645565b600060209050601f83116001811461173c576000841561172a578287015190505b61173485826116b6565b86555061179c565b601f19841661174a86611526565b60005b828110156117725784890151825560018201915060208501945060208101905061174d565b8683101561178f578489015161178b601f891682611698565b8355505b6001600288020188555050505b505050505050565b7f556e617574686f72697a656420757365722e0000000000000000000000000000600082015250565b60006117da60128361123f565b91506117e5826117a4565b602082019050919050565b60006020820190508181036000830152611809816117cd565b9050919050565b7f496e76616c69642063616e6469646174652049442e0000000000000000000000600082015250565b600061184660158361123f565b915061185182611810565b602082019050919050565b6000602082019050818103600083015261187581611839565b9050919050565b7f4e487b7100000000000000000000000000000000000000000000000000000000600052603260045260246000fd5b600081519050919050565b6000819050602082019050919050565b60007fffffffffffffffffffffffffffffffffffffffff00000000000000000000000082169050919050565b60006118fe82516118c6565b80915050919050565b6000611912826118ab565b8261191c846118b6565b9050611927816118f2565b92506014821015611967576119627fffffffffffffffffffffffffffffffffffffffff0000000000000000000000008360140360080261154b565b831692505b5050919050565b7f566f746572206973206e6f7420726567697374657265642e0000000000000000600082015250565b60006119a460188361123f565b91506119af8261196e565b602082019050919050565b600060208201905081810360008301526119d381611997565b9050919050565b7f566f7465722068617320616c726561647920766f7465642e0000000000000000600082015250565b6000611a1060188361123f565b9150611a1b826119da565b602082019050919050565b60006020820190508181036000830152611a3f81611a03565b9050919050565b7f5369676e617475726520766572696669636174696f6e206661696c65642e0000600082015250565b6000611a7c601e8361123f565b9150611a8782611a46565b602082019050919050565b60006020820190508181036000830152611aab81611a6f565b9050919050565b7f4e487b7100000000000000000000000000000000000000000000000000000000600052601160045260246000fd5b6000611aec826111a7565b9150611af7836111a7565b9250828201905080821115611b0f57611b0e611ab2565b5b92915050565b6000611b20826111a7565b91507fffffffffffffffffffffffffffffffffffffffffffffffffffffffffffffffff8203611b5257611b51611ab2565b5b600182019050919050565b7f19457468657265756d205369676e6564204d6573736167653a0a333200000000600082015250565b6000611b93601c83611407565b9150611b9e82611b5d565b601c82019050919050565b60008160601b9050919050565b6000611bc182611ba9565b9050919050565b6000611bd382611bb6565b9050919050565b611beb611be682611106565b611bc8565b82525050565b6000611bfc82611b86565b9150611c088284611bda565b60148201915081905092915050565b6000819050919050565b6000611c2d8251611c17565b80915050919050565b6000611c41826118ab565b82611c4b846118b6565b9050611c5681611c21565b92506020821015611c9657611c917fffffffffffffffffffffffffffffffffffffffffffffffffffffffffffffffff8360200360080261154b565b831692505b5050919050565b611ca681611c17565b82525050565b6000819050919050565b600060ff82169050919050565b6000611cde611cd9611cd484611cac565b6115aa565b611cb6565b9050919050565b611cee81611cc3565b82525050565b6000608082019050611d096000830187611c9d565b611d166020830186611ce5565b611d236040830185611c9d565b611d306060830184611c9d565b9594505050505056fea264697066735822122008d24672de9386e9debe8d6358d20867c8f70b25c627837c087eeea9c1533b5164736f6c63430008110033",
  "immutableReferences": {},
  "source": "// SPDX-License-Identifier: MIT\npragma solidity ^0.8.0;\n\n\ncontract VotingSystem {\n\n    mapping(string => mapping(string => mapping(string => bool))) public isRegistered;\n    mapping(address => bool) public isRegisteredAddress;\n    mapping(address => bool) public hasVoted;\n    address[] public registeredAddresses;\n    mapping(address => VoterInfo) public voterInfo;\n    \n    event Voted(address indexed voter, uint indexed candidateId);\n    event VoterRegistered(address indexed voterAddress, string name, string surname, string dob);\n    event DebugCandidateId(uint indexed candidateId);\n    \n    struct VoterInfo {\n        string voterName;\n        string voterSurname;\n        string voterDOB;\n    }\n\n    struct Candidate {\n        uint id;\n        string name;\n        string affiliation;\n        uint voteCount;\n    }\n\n    Candidate[] public candidates;\n\n    constructor(string[] memory candidateNames, string[] memory candidateAffiliations) {\n        require(candidateNames.length == candidateAffiliations.length, \"Mismatch between names and affiliations.\");\n        for (uint i = 0; i < candidateNames.length; i++) {\n            candidates.push(Candidate(i, candidateNames[i], candidateAffiliations[i], 0));\n        }\n    }\n\n    function registerVoter(string memory name, string memory surname, string memory dob) public {\n        require(!isRegistered[name][surname][dob], \"Voter is already registered.\");\n\n        address voterAddress = msg.sender;\n        isRegistered[name][surname][dob] = true;\n        registeredAddresses.push(voterAddress);\n        voterInfo[voterAddress] = VoterInfo(name, surname, dob);\n        hasVoted[voterAddress] = false;\n        emit VoterRegistered(voterAddress, name, surname, dob);\n    }\n\n    function getRegisteredVotersCount() public view returns (uint) {\n        return registeredAddresses.length;\n    }\n\n    function isAuthorized(address caller) public pure returns (bool) {\n        // for demonstration we assume we have a list of authorized personnel\n        address[] memory authorizedAddresses = new address[](1);\n        authorizedAddresses[0] = 0xeEfcDAD9Eadcd1E1cb9Ea466bbC635796940D073;\n        for (uint i = 0; i < authorizedAddresses.length; i++) {\n            if (authorizedAddresses[i] == caller) {\n                return true;\n            }\n        }\n        return false;\n    }\n    //     function hexStringToBytes32(string memory hexString) private pure returns (bytes32) {\n    //     bytes32 result;\n    //     bytes memory hexBytes = bytes(hexString);\n\n    //     for (uint i = 0; i < hexBytes.length; i += 2) {\n    //         uint8 a = uint8(hexBytes[i]);\n    //         uint8 b = uint8(hexBytes[i + 1]);\n    //         require(a >= 48 && a <= 102 && b >= 48 && b <= 102, \"Invalid hex string\");\n    //         uint8 c = a > 57 ? a - 87 : a - 48;\n    //         uint8 d = b > 57 ? b - 87 : b - 48;\n    //         result |= bytes32(c * 16 + d) >> (i / 2 * 8);\n    //     }\n\n    //     return result;\n    // }\n\n    function verifySignature(address signer, string memory signature) private pure returns (bool){\n        bytes32 messageHash = keccak256(abi.encodePacked(\"\\x19Ethereum Signed Message:\\n32\", signer));\n        bytes32 signatureHash = bytes32(abi.encodePacked(signature));\n\n        address recoveredAddress = ecrecover(messageHash, 27, signatureHash, bytes32(0));\n\n        return recoveredAddress == signer;\n    }\n\n\n    function vote(string memory voterAddressString, uint candidateId, string memory signature) public {\n        address voterAddress = address(bytes20(bytes(voterAddressString)));\n        require(isRegisteredAddress[voterAddress], \"Voter is not registered.\");\n        require(!hasVoted[voterAddress], \"Voter has already voted.\");\n        require(candidateId < candidates.length, \"Invalid candidate ID.\");\n\n        require(verifySignature(voterAddress, signature), \"Signature verification failed.\");\n        hasVoted[voterAddress] = true;\n\n        candidates[candidateId].voteCount += 1;\n        emit Voted(voterAddress, candidateId);\n\n    }\n\n    function countVotes(uint candidateId) public view returns (uint) {\n        require(isAuthorized(msg.sender), \"Unauthorized user.\");\n        require(candidateId < candidates.length, \"Invalid candidate ID.\");\n        \n        return candidates[candidateId].voteCount;\n    }\n}",
  "sourcePath": "/Users/steventohme/Desktop/decentral-democracy/contracts/VotingSystem.sol",
  "compiler": {
    "name": "solc",
    "version": "0.8.17+commit.8df45f5f.Emscripten.clang"
  },
  "schemaVersion": "3.4.16",
  "updatedAt": "2023-09-17T08:21:15.777Z",
  "networkType": "ethereum",
  "devdoc": {
    "kind": "dev",
    "methods": {},
    "version": 1
  },
  "userdoc": {
    "kind": "user",
    "methods": {},
    "version": 1
  }
}